{
  "contractName": "MultiSigWalletFactory",
  "abi": [
    {
      "anonymous": false,
      "inputs": [
        {
          "indexed": false,
          "internalType": "address",
          "name": "sender",
          "type": "address"
        },
        {
          "indexed": false,
          "internalType": "address",
          "name": "instantiation",
          "type": "address"
        }
      ],
      "name": "ContractInstantiation",
      "type": "event"
    },
    {
      "constant": true,
      "inputs": [
        {
          "internalType": "address",
          "name": "creator",
          "type": "address"
        }
      ],
      "name": "getInstantiationCount",
      "outputs": [
        {
          "internalType": "uint256",
          "name": "",
          "type": "uint256"
        }
      ],
      "payable": false,
      "stateMutability": "view",
      "type": "function"
    },
    {
      "constant": true,
      "inputs": [
        {
          "internalType": "address",
          "name": "",
          "type": "address"
        },
        {
          "internalType": "uint256",
          "name": "",
          "type": "uint256"
        }
      ],
      "name": "instantiations",
      "outputs": [
        {
          "internalType": "address",
          "name": "",
          "type": "address"
        }
      ],
      "payable": false,
      "stateMutability": "view",
      "type": "function"
    },
    {
      "constant": true,
      "inputs": [
        {
          "internalType": "address",
          "name": "",
          "type": "address"
        }
      ],
      "name": "isInstantiation",
      "outputs": [
        {
          "internalType": "bool",
          "name": "",
          "type": "bool"
        }
      ],
      "payable": false,
      "stateMutability": "view",
      "type": "function"
    },
    {
      "constant": false,
      "inputs": [
        {
          "internalType": "address[]",
          "name": "_owners",
          "type": "address[]"
        },
        {
          "internalType": "uint256",
          "name": "_required",
          "type": "uint256"
        }
      ],
      "name": "create",
      "outputs": [
        {
          "internalType": "address",
          "name": "wallet",
          "type": "address"
        }
      ],
      "payable": false,
      "stateMutability": "nonpayable",
      "type": "function"
    }
  ],
  "bytecode": "0x60806040523480156100195760008061001661001f565b50505b5061008a565b632a2a7adb598160e01b8152600481016020815285602082015260005b8681101561005757808601518282016040015260200161003c565b506020828760640184336000905af158600e01573d6000803e3d6000fd5b3d6001141558600a015760016000f35b505050565b612d8f806100996000396000f3fe60806040523480156200001c57600080620000196200045b565b50505b50600436106200005d5760003560e01c80632f4f3316146200006d57806357183c8214620000b55780638f838478146200010b578063f8f738081462000151575b6000806200006a6200045b565b50505b620000a16004803603602081101562000090576000806200008d6200045b565b50505b50356001600160a01b0316620001f1565b604051901515815260200160405180910390f35b620000ef60048036036040811015620000d857600080620000d56200045b565b50505b506001600160a01b0381351690602001356200021a565b6040516001600160a01b03909116815260200160405180910390f35b6200013f600480360360208110156200012e576000806200012b6200045b565b50505b50356001600160a01b03166200026a565b60405190815260200160405180910390f35b620000ef600480360360408110156200017457600080620001716200045b565b50505b810190602081018135600160201b8111156200019a57600080620001976200045b565b50505b820183602082011115620001b857600080620001b56200045b565b50505b803590602001918460208302840111600160201b83111715620001e557600080620001e26200045b565b50505b91935091503562000294565b6000602052806000526040600020600091506200020d620004c8565b906101000a900460ff1681565b6001602052816000526040600020818162000234620004c8565b81106200023d57fe5b9060005260206000206000935001905062000257620004c8565b906101000a90046001600160a01b031681565b6001600160a01b0381166000908152600160205260408120806200028d620004c8565b9392505050565b600080848484604051620002a8906200052a565b80806020018381526020018281038252858582818152602001925060200280828437600083820152601f01601f19169091019550604094505050505051809103906000620002f562000538565b50508015801562000315573d6000803e3d6000620003126200045b565b50505b50905080915062000326826200032e565b509392505050565b6001600160a01b038116600090815260208190526001906040902060018162000356620004c8565b8160ff021916908315150217906200036d620005c4565b505050600160005a6200037f62000613565b6001600160a01b03166001600160a01b03168152602001908152602001600020819080600181620003af620004c8565b018082620003bc620005c4565b5050600092835291600019830191506020902091929101600181620003e0620004c8565b816001600160a01b0302191690836001600160a01b031602179062000404620005c4565b505050507f4fb057ad4a26ed17a57957fa69c306f11987596069b89521c511fc9a894e61615a6200043462000613565b826040516001600160a01b039283168152911660208201526040908101905180910390a150565b632a2a7adb598160e01b8152600481016020815285602082015260005b868110156200049557808601518282016040015260200162000478565b506020828760640184336000905af158600e01573d6000803e3d6000fd5b3d6001141558600a015760016000f35b505050565b6303daa959598160e01b8152836004820152602081602483336000905af158600e01573d6000803e3d6000fd5b3d6001141558600a015760016000f35b8051935060005b604081101562000525576000828201526020016200050c565b505050565b612734806200065b83390190565b6314aa2ff7598160e01b8152600481016020815286602082015260005b878110156200057257808701518282016040015260200162000555565b506020828860640184336000905af158600e01573d6000803e3d6000fd5b3d6001141558600a015760016000f35b8151965059825b81811015620005bd5760008152602001620005a7565b5050505050565b6322bd64c0598160e01b8152836004820152846024820152600081604483336000905af158600e01573d6000803e3d6000fd5b3d6001141558600a015760016000f35b6000815260206200050c565b6373509064598160e01b8152602081600483336000905af158600e01573d6000803e3d6000fd5b3d6001141558600a015760016000f35b805160008252935060206200050c56fe60806040523480156200001c576000806200001962000285565b50505b506040516200273438038062002734833981810160405260408110156200004d576000806200004a62000285565b50505b810190808051604051939291908464010000000082111562000079576000806200007662000285565b50505b9083019060208201858111156200009a576000806200009762000285565b50505b8251866020820283011164010000000082111715620000c357600080620000c062000285565b50505b825250602001908051906020019060200280838360005b83811015620000f4578082015183820152602001620000da565b5050505090500160405260200180519250839150505181603282111580156200011d5750818111155b80156200012957508015155b80156200013557508115155b6200014a576000806200014762000285565b50505b60005b84518110156200025357600260008683815181106200016857fe5b60200260200101516001600160a01b03166001600160a01b031681526020019081526020016000206000906200019d620002f2565b906101000a900460ff16158015620001d357506000858281518110620001bf57fe5b60200260200101516001600160a01b031614155b620001e857600080620001e562000285565b50505b600160026000878481518110620001fb57fe5b60200260200101516001600160a01b03166001600160a01b0316815260200190815260200160002060018162000230620002f2565b8160ff021916908315150217906200024762000354565b5050506001016200014d565b50600384805162000269929160200190620003a3565b50828060046200027862000354565b5050505050505062000480565b632a2a7adb598160e01b8152600481016020815285602082015260005b86811015620002bf578086015182820160400152602001620002a2565b506020828760640184336000905af158600e01573d6000803e3d6000fd5b3d6001141558600a015760016000f35b505050565b6303daa959598160e01b8152836004820152602081602483336000905af158600e01573d6000803e3d6000fd5b3d6001141558600a015760016000f35b8051935060005b60408110156200034f5760008282015260200162000336565b505050565b6322bd64c0598160e01b8152836004820152846024820152600081604483336000905af158600e01573d6000803e3d6000fd5b3d6001141558600a015760016000f35b60008152602062000336565b8280620003af620002f2565b8282620003bb62000354565b505090600052602060002090810192821562000428579160200282015b828111156200042857825182600181620003f1620002f2565b816001600160a01b0302191690836001600160a01b03160217906200041562000354565b50505091602001919060010190620003d8565b50620004369291506200043a565b5090565b6200047d91905b8082111562000436576000816001816200045a620002f2565b906001600160a01b03021916906200047162000354565b50505060010162000441565b90565b6122a480620004906000396000f3fe6080604052600436106100fa5760003560e01c8063025e7c2714610148578063173825d9146101a057806320ea8d86146101e55780632f54bf6e146102215780633411c81c1461027a57806354741525146102c55780637065cb481461031d578063784547a7146103625780638b51d13f1461039e5780639ace38c2146103da578063a0e67e2b146104ae578063a8abe69a1461051f578063b5dc40c314610571578063b77bf600146105ad578063ba51a6df146105cb578063c01a8c8414610607578063c642747414610643578063d74f8edd14610700578063dc8452cd1461071e578063e20056e61461073c578063ee22610b14610789575b3415610146575a610109611f1e565b6001600160a01b03167fe1fffcc4923d04b559f4d29a8bfc6cda04eb5b0d3c460751c2402c5c5cc9109c3460405190815260200160405180910390a25b005b34801561015d5760008061015a611f78565b50505b506101846004803603602081101561017d5760008061017a611f78565b50505b50356107c5565b6040516001600160a01b03909116815260200160405180910390f35b3480156101b5576000806101b2611f78565b50505b50610146600480360360208110156101d5576000806101d2611f78565b50505b50356001600160a01b0316610802565b3480156101fa576000806101f7611f78565b50505b506101466004803603602081101561021a57600080610217611f78565b50505b5035610a90565b34801561023657600080610233611f78565b50505b506102666004803603602081101561025657600080610253611f78565b50505b50356001600160a01b0316610c0d565b604051901515815260200160405180910390f35b34801561028f5760008061028c611f78565b50505b50610266600480360360408110156102af576000806102ac611f78565b50505b50803590602001356001600160a01b0316610c34565b3480156102da576000806102d7611f78565b50505b5061030b600480360360408110156102fa576000806102f7611f78565b50505b508035151590602001351515610c5c565b60405190815260200160405180910390f35b3480156103325760008061032f611f78565b50505b50610146600480360360208110156103525760008061034f611f78565b50505b50356001600160a01b0316610cf1565b34801561037757600080610374611f78565b50505b506102666004803603602081101561039757600080610394611f78565b50505b5035610ef6565b3480156103b3576000806103b0611f78565b50505b5061030b600480360360208110156103d3576000806103d0611f78565b50505b5035610fc5565b3480156103ef576000806103ec611f78565b50505b506104166004803603602081101561040f5760008061040c611f78565b50505b5035611075565b6040516001600160a01b038516815260208101849052811515606082015260806040820181815290820184818151815260200191508051906020019080838360005b83811015610470578082015183820152602001610458565b50505050905090810190601f16801561049d5780820380516001836020036101000a031916815260200191505b509550505050505060405180910390f35b3480156104c3576000806104c0611f78565b50505b506104cc611185565b60405160208082528190810183818151815260200191508051906020019060200280838360005b8381101561050b5780820151838201526020016104f3565b505050509050019250505060405180910390f35b34801561053457600080610531611f78565b50505b506104cc6004803603608081101561055457600080610551611f78565b50505b50803590602081013590604081013515159060600135151561120d565b34801561058657600080610583611f78565b50505b506104cc600480360360208110156105a6576000806105a3611f78565b50505b5035611368565b3480156105c2576000806105bf611f78565b50505b5061030b611535565b3480156105e0576000806105dd611f78565b50505b5061014660048036036020811015610600576000806105fd611f78565b50505b5035611542565b34801561061c57600080610619611f78565b50505b506101466004803603602081101561063c57600080610639611f78565b50505b5035611657565b34801561065857600080610655611f78565b50505b5061030b6004803603606081101561067857600080610675611f78565b50505b6001600160a01b0382351691602081013591810190606081016040820135600160201b8111156106b0576000806106ad611f78565b50505b8201836020820111156106cb576000806106c8611f78565b50505b803590602001918460018302840111600160201b831117156106f5576000806106f2611f78565b50505b5090925090506117ee565b34801561071557600080610712611f78565b50505b5061030b611843565b34801561073357600080610730611f78565b50505b5061030b611848565b3480156107515760008061074e611f78565b50505b50610146600480360360408110156107715760008061076e611f78565b50505b506001600160a01b0381358116916020013516611852565b34801561079e5760008061079b611f78565b50505b50610146600480360360208110156107be576000806107bb611f78565b50505b5035611ae9565b600381816107d1611fe3565b81106107d957fe5b90600052602060002001600091506107ef611fe3565b906101000a90046001600160a01b031681565b5a63996d79a5598160e01b8152602081600483336000905af158600e01573d6000803e3d6000fd5b3d6001141558600a015760016000f35b8051925060005b604081101561085857600082820152602001610841565b5050506001600160a01b03165a61086d611f1e565b6001600160a01b03161461088957600080610886611f78565b50505b6001600160a01b038116600090815260026020528190604090206000906108ae611fe3565b906101000a900460ff166108ca576000806108c7611f78565b50505b6001600160a01b03821660009081526002602052604081206001816108ed611fe3565b8160ff0219169083151502179061090261202f565b5060009150505b6001600380610916611fe3565b905003811015610a1557826001600160a01b031660038281610936611fe3565b811061093e57fe5b90600052602060002001600090610953611fe3565b906101000a90046001600160a01b03166001600160a01b03161415610a0d5760036001600380610981611fe3565b9050038161098d611fe3565b811061099557fe5b906000526020600020016000906109aa611fe3565b906101000a90046001600160a01b0316600382816109c6611fe3565b81106109ce57fe5b906000526020600020016001816109e3611fe3565b816001600160a01b0302191690836001600160a01b0316021790610a0561202f565b505050610a15565b600101610909565b5060016003818180610a25611fe3565b905003915081610a35919061207d565b50600380610a41611fe3565b90506004610a4d611fe3565b1115610a6857610a68600380610a61611fe3565b9050611542565b816001600160a01b031660008051602061228483398151915260405160405180910390a25050565b5a610a99611f1e565b6001600160a01b0381166000908152600260205260409020600090610abc611fe3565b906101000a900460ff16610ad857600080610ad5611f78565b50505b815a610ae2611f1e565b60008281526001602052604090206001600160a01b038216600090815260209190915260409020600090610b14611fe3565b906101000a900460ff16610b3057600080610b2d611f78565b50505b60008481526020819052849060409020600301600090610b4e611fe3565b906101000a900460ff1615610b6b57600080610b68611f78565b50505b600085815260016020526040812060005a610b84611f1e565b6001600160a01b03166001600160a01b03168152602001908152602001600020600181610baf611fe3565b8160ff02191690831515021790610bc461202f565b505050845a610bd1611f1e565b6001600160a01b03167ff6a317157440607f36269043eb55f1287a5a19ba2216afeab88cd46cbcfb88e960405160405180910390a35050505050565b600260205280600052604060002060009150610c27611fe3565b906101000a900460ff1681565b6001602052816000526040600020602052806000526040600020600092509050610c27611fe3565b6000805b6005610c6a611fe3565b811015610cea57838015610ca157506000818152602081905260409020600301600090610c95611fe3565b906101000a900460ff16155b80610cd65750828015610cd657506000818152602081905260409020600301600090610ccb611fe3565b906101000a900460ff165b15610ce2576001820191505b600101610c60565b5092915050565b5a63996d79a5598160e01b8152602081600483336000905af158600e01573d6000803e3d6000fd5b3d6001141558600a015760016000f35b8051925060005b6040811015610d4757600082820152602001610d30565b5050506001600160a01b03165a610d5c611f1e565b6001600160a01b031614610d7857600080610d75611f78565b50505b6001600160a01b03811660009081526002602052819060409020600090610d9d611fe3565b906101000a900460ff1615610dba57600080610db7611f78565b50505b816001600160a01b038116610dd757600080610dd4611f78565b50505b600380610de2611fe3565b90506001016004610df1611fe3565b60328211158015610e025750818111155b8015610e0d57508015155b8015610e1857508115155b610e2a57600080610e27611f78565b50505b6001600160a01b0385166000908152600260205260019060409020600181610e50611fe3565b8160ff02191690831515021790610e6561202f565b5050506003859080600181610e78611fe3565b018082610e8361202f565b5050600092835291600019830191506020902091929101600181610ea5611fe3565b816001600160a01b0302191690836001600160a01b0316021790610ec761202f565b50505050846001600160a01b031660008051602061226483398151915260405160405180910390a25050505050565b600080805b600380610f06611fe3565b9050811015610fbd576000848152600160205260409020600060038381610f2b611fe3565b8110610f3357fe5b90600052602060002001600090610f48611fe3565b906101000a90046001600160a01b03166001600160a01b03166001600160a01b03168152602001908152602001600020600090610f83611fe3565b906101000a900460ff1615610f99576001820191505b6004610fa3611fe3565b821415610fb557600192505050610fc0565b600101610efb565b50505b919050565b6000805b600380610fd4611fe3565b905081101561106f576000838152600160205260409020600060038381610ff9611fe3565b811061100157fe5b90600052602060002001600090611016611fe3565b906101000a90046001600160a01b03166001600160a01b03166001600160a01b03168152602001908152602001600020600090611051611fe3565b906101000a900460ff1615611067576001820191505b600101610fc9565b50919050565b60006020528060005260406000209050600081611090611fe3565b906101000a90046001600160a01b031690806001016110ad611fe3565b9080600201806110bb611fe3565b600181600116156101000203166002900480601f0160208091040260200160405190810160405281815291906020830182806110f5611fe3565b600181600116156101000203166002900480156111615780601f1061112f576101008083611121611fe3565b040283529160200191611161565b820191906000526020600020905b81611146611fe3565b8152906001019060200180831161113d57829003601f168201915b50505050509080600301600090611176611fe3565b906101000a900460ff16905084565b6060600380611192611fe3565b8060200260200160405190810160405281815291906020830182806111b5611fe3565b801561120257602002820191906000526020600020905b6000826111d7611fe3565b906101000a90046001600160a01b03166001600160a01b0316815260200190600101908083116111cc575b505050505090505b90565b606080600561121a611fe3565b604051908082528060200260200182016040528015611243578160200160208202803883390190505b5090506000805b6005611254611fe3565b8110156112ed5785801561128b5750600081815260208190526040902060030160009061127f611fe3565b906101000a900460ff16155b806112c057508480156112c0575060008181526020819052604090206003016000906112b5611fe3565b906101000a900460ff165b156112e557808383815181106112d257fe5b6020026020010181815250506001820191505b60010161124a565b878703604051908082528060200260200182016040528015611319578160200160208202803883390190505b5093508790505b8681101561135d5782818151811061133457fe5b6020026020010151848983038151811061134a57fe5b6020908102919091010152600101611320565b505050949350505050565b606080600380611376611fe3565b90506040519080825280602002602001820160405280156113a1578160200160208202803883390190505b5090506000805b6003806113b3611fe3565b90508110156114b35760008581526001602052604090206000600383816113d8611fe3565b81106113e057fe5b906000526020600020016000906113f5611fe3565b906101000a90046001600160a01b03166001600160a01b03166001600160a01b03168152602001908152602001600020600090611430611fe3565b906101000a900460ff16156114ab576003818161144b611fe3565b811061145357fe5b90600052602060002001600090611468611fe3565b906101000a90046001600160a01b031683838151811061148457fe5b60200260200101906001600160a01b031690816001600160a01b0316815250506001820191505b6001016113a8565b816040519080825280602002602001820160405280156114dd578160200160208202803883390190505b509350600090505b8181101561152d578281815181106114f957fe5b602002602001015184828151811061150d57fe5b6001600160a01b03909216602092830291909101909101526001016114e5565b505050919050565b600561153f611fe3565b81565b5a63996d79a5598160e01b8152602081600483336000905af158600e01573d6000803e3d6000fd5b3d6001141558600a015760016000f35b8051925060005b604081101561159857600082820152602001611581565b5050506001600160a01b03165a6115ad611f1e565b6001600160a01b0316146115c9576000806115c6611f78565b50505b6003806115d4611fe3565b905081603282111580156115e85750818111155b80156115f357508015155b80156115fe57508115155b6116105760008061160d611f78565b50505b8280600461161c61202f565b5050507fa3f1ee9126a074d9326c682f561767f710e927faa811f7a99829d49dc421797a8360405190815260200160405180910390a1505050565b5a611660611f1e565b6001600160a01b0381166000908152600260205260409020600090611683611fe3565b906101000a900460ff1661169f5760008061169c611f78565b50505b600082815260208190528290604081206000906116ba611fe3565b906101000a90046001600160a01b03166001600160a01b031614156116e7576000806116e4611f78565b50505b825a6116f1611f1e565b60008281526001602052604090206001600160a01b038216600090815260209190915260409020600090611723611fe3565b906101000a900460ff16156117405760008061173d611f78565b50505b600085815260016020819052906040902060005a61175c611f1e565b6001600160a01b03166001600160a01b03168152602001908152602001600020600181611787611fe3565b8160ff0219169083151502179061179c61202f565b505050845a6117a9611f1e565b6001600160a01b03167f4a504a94899432a9846e1aa406dceb1bcfd538bb839071d49d1e5e23f5be30ef60405160405180910390a36117e785611ae9565b5050505050565b6000611830858585858080601f0160208091040260200160405190810160405281815292919060208401838380828437600092019190915250611da992505050565b905061183b81611657565b949350505050565b603281565b600461153f611fe3565b5a63996d79a5598160e01b8152602081600483336000905af158600e01573d6000803e3d6000fd5b3d6001141558600a015760016000f35b8051925060005b60408110156118a857600082820152602001611891565b5050506001600160a01b03165a6118bd611f1e565b6001600160a01b0316146118d9576000806118d6611f78565b50505b6001600160a01b038216600090815260026020528290604090206000906118fe611fe3565b906101000a900460ff1661191a57600080611917611f78565b50505b6001600160a01b0382166000908152600260205282906040902060009061193f611fe3565b906101000a900460ff161561195c57600080611959611f78565b50505b60005b60038061196a611fe3565b9050811015611a2157846001600160a01b031660038281611989611fe3565b811061199157fe5b906000526020600020016000906119a6611fe3565b906101000a90046001600160a01b03166001600160a01b03161415611a195783600382816119d2611fe3565b81106119da57fe5b906000526020600020016001816119ef611fe3565b816001600160a01b0302191690836001600160a01b0316021790611a1161202f565b505050611a21565b60010161195f565b506001600160a01b0384166000908152600260205260408120600181611a45611fe3565b8160ff02191690831515021790611a5a61202f565b5050506001600160a01b0383166000908152600260205260019060409020600181611a83611fe3565b8160ff02191690831515021790611a9861202f565b505050836001600160a01b031660008051602061228483398151915260405160405180910390a2826001600160a01b031660008051602061226483398151915260405160405180910390a250505050565b5a611af2611f1e565b6001600160a01b0381166000908152600260205260409020600090611b15611fe3565b906101000a900460ff16611b3157600080611b2e611f78565b50505b815a611b3b611f1e565b60008281526001602052604090206001600160a01b038216600090815260209190915260409020600090611b6d611fe3565b906101000a900460ff16611b8957600080611b86611f78565b50505b60008481526020819052849060409020600301600090611ba7611fe3565b906101000a900460ff1615611bc457600080611bc1611f78565b50505b611bcd85610ef6565b156117e757600085815260208190526040812090506001600382018181611bf2611fe3565b8160ff02191690831515021790611c0761202f565b50611d1391506000905082611c1a611fe3565b906101000a90046001600160a01b031682600101611c36611fe3565b8360020180611c43611fe3565b600181600116156101000203166002900490508460020180611c63611fe3565b600181600116156101000203166002900480601f016020809104026020016040519081016040528181529190602083018280611c9d611fe3565b60018160011615610100020316600290048015611d095780601f10611cd7576101008083611cc9611fe3565b040283529160200191611d09565b820191906000526020600020905b81611cee611fe3565b81529060010190602001808311611ce557829003601f168201915b5050505050611ef1565b15611d4a57857f33e13ecb54c3076d8e8bb8c2881800a4d972b792045ffae98fdf46df365fed7560405160405180910390a2611da1565b857f526441bb6c1aba3c9a4a6ca1d6545da9c2333c8c48343ef398eb858d72b7923660405160405180910390a2600060038201600181611d88611fe3565b8160ff02191690831515021790611d9d61202f565b5050505b505050505050565b6000836001600160a01b038116611dc857600080611dc5611f78565b50505b6005611dd2611fe3565b91506040516080810160409081526001600160a01b038716825260208083018790528183018690526000606084018190528581529081905220815181600181611e19611fe3565b816001600160a01b0302191690836001600160a01b0316021790611e3b61202f565b505050602082015181600101611e4f61202f565b5050604082015181600201908051611e6b9291602001906120b1565b50606082015160038201600181611e80611fe3565b8160ff02191690831515021790611e9561202f565b5050509050506001600560008282611eab611fe3565b019250508190611eb961202f565b505050817fc0ba8fe4b176c1714197d43b9cc6bcf797a4a7461c5fe8d0ef6e184ae7601e5160405160405180910390a2509392505050565b6000806040516020840160008287838a8c5a611f0b612151565b50949d9c50505050505050505050505050565b6373509064598160e01b8152602081600483336000905af158600e01573d6000803e3d6000fd5b3d6001141558600a015760016000f35b8051935060005b6040811015611f7357600082820152602001611f5c565b505050565b632a2a7adb598160e01b8152600481016020815285602082015260005b86811015611fb0578086015182820160400152602001611f95565b506020828760640184336000905af158600e01573d6000803e3d6000fd5b3d6001141558600a015760016000f35b505050565b6303daa959598160e01b8152836004820152602081602483336000905af158600e01573d6000803e3d6000fd5b3d6001141558600a015760016000f35b80516000825293506020611f5c565b6322bd64c0598160e01b8152836004820152846024820152600081604483336000905af158600e01573d6000803e3d6000fd5b3d6001141558600a015760016000f35b600081526020611f5c565b81612086611fe3565b818361209061202f565b505081811115611f735781836000526020600020611f73928101910161223e565b82806120bb611fe3565b600181600116156101000203166002900490600052602060002090601f016020900481019282601f1061210257805160ff191683800117856120fb61202f565b5050612141565b8280016001018561211161202f565b50508215612141579182015b828111156121415782518261213061202f565b50509160200191906001019061211d565b5061214d92915061223e565b5090565b6385979f76598160e01b8152612184565b808083111561216e5750815b92915050565b808083101561216e575090919050565b836004820152846024820152606060448201528760648201526084810160005b898110156121bc5780890151828201526020016121a4565b506060828a60a40184336000905af158600e01573d6000803e3d6000fd5b3d6001141558600a015760016000f35b815160408301513d6000853e8c8c82606087013350600060045af150596122118e3d612174565b8d0161221d8187612162565b5b82811015612232576000815260200161221e565b50929d50505050505050565b61120a91905b8082111561214d576000808261225861202f565b50505060010161224456fef39e6e1eb0edcf53c221607b54b00cd28f3196fed0a24994dc308b8f611b682d8001553a916ef2f495d26a907cc54d96ed840d7bda71e73194bf5a9df7a76b90",
  "deployedBytecode": "0x60806040523480156200001c57600080620000196200045b565b50505b50600436106200005d5760003560e01c80632f4f3316146200006d57806357183c8214620000b55780638f838478146200010b578063f8f738081462000151575b6000806200006a6200045b565b50505b620000a16004803603602081101562000090576000806200008d6200045b565b50505b50356001600160a01b0316620001f1565b604051901515815260200160405180910390f35b620000ef60048036036040811015620000d857600080620000d56200045b565b50505b506001600160a01b0381351690602001356200021a565b6040516001600160a01b03909116815260200160405180910390f35b6200013f600480360360208110156200012e576000806200012b6200045b565b50505b50356001600160a01b03166200026a565b60405190815260200160405180910390f35b620000ef600480360360408110156200017457600080620001716200045b565b50505b810190602081018135600160201b8111156200019a57600080620001976200045b565b50505b820183602082011115620001b857600080620001b56200045b565b50505b803590602001918460208302840111600160201b83111715620001e557600080620001e26200045b565b50505b91935091503562000294565b6000602052806000526040600020600091506200020d620004c8565b906101000a900460ff1681565b6001602052816000526040600020818162000234620004c8565b81106200023d57fe5b9060005260206000206000935001905062000257620004c8565b906101000a90046001600160a01b031681565b6001600160a01b0381166000908152600160205260408120806200028d620004c8565b9392505050565b600080848484604051620002a8906200052a565b80806020018381526020018281038252858582818152602001925060200280828437600083820152601f01601f19169091019550604094505050505051809103906000620002f562000538565b50508015801562000315573d6000803e3d6000620003126200045b565b50505b50905080915062000326826200032e565b509392505050565b6001600160a01b038116600090815260208190526001906040902060018162000356620004c8565b8160ff021916908315150217906200036d620005c4565b505050600160005a6200037f62000613565b6001600160a01b03166001600160a01b03168152602001908152602001600020819080600181620003af620004c8565b018082620003bc620005c4565b5050600092835291600019830191506020902091929101600181620003e0620004c8565b816001600160a01b0302191690836001600160a01b031602179062000404620005c4565b505050507f4fb057ad4a26ed17a57957fa69c306f11987596069b89521c511fc9a894e61615a6200043462000613565b826040516001600160a01b039283168152911660208201526040908101905180910390a150565b632a2a7adb598160e01b8152600481016020815285602082015260005b868110156200049557808601518282016040015260200162000478565b506020828760640184336000905af158601d01573d60011458600c01573d6000803e3d621234565260ea61109c52505050565b6303daa959598160e01b8152836004820152602081602483336000905af158601d01573d60011458600c01573d6000803e3d621234565260ea61109c528051935060005b604081101562000525576000828201526020016200050c565b505050565b612734806200065b83390190565b6314aa2ff7598160e01b8152600481016020815286602082015260005b878110156200057257808701518282016040015260200162000555565b506020828860640184336000905af158601d01573d60011458600c01573d6000803e3d621234565260ea61109c528151965059825b81811015620005bd5760008152602001620005a7565b5050505050565b6322bd64c0598160e01b8152836004820152846024820152600081604483336000905af158601d01573d60011458600c01573d6000803e3d621234565260ea61109c526000815260206200050c565b6373509064598160e01b8152602081600483336000905af158601d01573d60011458600c01573d6000803e3d621234565260ea61109c52805160008252935060206200050c56fe60806040523480156200001c576000806200001962000285565b50505b506040516200273438038062002734833981810160405260408110156200004d576000806200004a62000285565b50505b810190808051604051939291908464010000000082111562000079576000806200007662000285565b50505b9083019060208201858111156200009a576000806200009762000285565b50505b8251866020820283011164010000000082111715620000c357600080620000c062000285565b50505b825250602001908051906020019060200280838360005b83811015620000f4578082015183820152602001620000da565b5050505090500160405260200180519250839150505181603282111580156200011d5750818111155b80156200012957508015155b80156200013557508115155b6200014a576000806200014762000285565b50505b60005b84518110156200025357600260008683815181106200016857fe5b60200260200101516001600160a01b03166001600160a01b031681526020019081526020016000206000906200019d620002f2565b906101000a900460ff16158015620001d357506000858281518110620001bf57fe5b60200260200101516001600160a01b031614155b620001e857600080620001e562000285565b50505b600160026000878481518110620001fb57fe5b60200260200101516001600160a01b03166001600160a01b0316815260200190815260200160002060018162000230620002f2565b8160ff021916908315150217906200024762000354565b5050506001016200014d565b50600384805162000269929160200190620003a3565b50828060046200027862000354565b5050505050505062000480565b632a2a7adb598160e01b8152600481016020815285602082015260005b86811015620002bf578086015182820160400152602001620002a2565b506020828760640184336000905af158601d01573d60011458600c01573d6000803e3d621234565260ea61109c52505050565b6303daa959598160e01b8152836004820152602081602483336000905af158601d01573d60011458600c01573d6000803e3d621234565260ea61109c528051935060005b60408110156200034f5760008282015260200162000336565b505050565b6322bd64c0598160e01b8152836004820152846024820152600081604483336000905af158601d01573d60011458600c01573d6000803e3d621234565260ea61109c5260008152602062000336565b8280620003af620002f2565b8282620003bb62000354565b505090600052602060002090810192821562000428579160200282015b828111156200042857825182600181620003f1620002f2565b816001600160a01b0302191690836001600160a01b03160217906200041562000354565b50505091602001919060010190620003d8565b50620004369291506200043a565b5090565b6200047d91905b8082111562000436576000816001816200045a620002f2565b906001600160a01b03021916906200047162000354565b50505060010162000441565b90565b6122a480620004906000396000f3fe6080604052600436106100fa5760003560e01c8063025e7c2714610148578063173825d9146101a057806320ea8d86146101e55780632f54bf6e146102215780633411c81c1461027a57806354741525146102c55780637065cb481461031d578063784547a7146103625780638b51d13f1461039e5780639ace38c2146103da578063a0e67e2b146104ae578063a8abe69a1461051f578063b5dc40c314610571578063b77bf600146105ad578063ba51a6df146105cb578063c01a8c8414610607578063c642747414610643578063d74f8edd14610700578063dc8452cd1461071e578063e20056e61461073c578063ee22610b14610789575b3415610146575a610109611f1e565b6001600160a01b03167fe1fffcc4923d04b559f4d29a8bfc6cda04eb5b0d3c460751c2402c5c5cc9109c3460405190815260200160405180910390a25b005b34801561015d5760008061015a611f78565b50505b506101846004803603602081101561017d5760008061017a611f78565b50505b50356107c5565b6040516001600160a01b03909116815260200160405180910390f35b3480156101b5576000806101b2611f78565b50505b50610146600480360360208110156101d5576000806101d2611f78565b50505b50356001600160a01b0316610802565b3480156101fa576000806101f7611f78565b50505b506101466004803603602081101561021a57600080610217611f78565b50505b5035610a90565b34801561023657600080610233611f78565b50505b506102666004803603602081101561025657600080610253611f78565b50505b50356001600160a01b0316610c0d565b604051901515815260200160405180910390f35b34801561028f5760008061028c611f78565b50505b50610266600480360360408110156102af576000806102ac611f78565b50505b50803590602001356001600160a01b0316610c34565b3480156102da576000806102d7611f78565b50505b5061030b600480360360408110156102fa576000806102f7611f78565b50505b508035151590602001351515610c5c565b60405190815260200160405180910390f35b3480156103325760008061032f611f78565b50505b50610146600480360360208110156103525760008061034f611f78565b50505b50356001600160a01b0316610cf1565b34801561037757600080610374611f78565b50505b506102666004803603602081101561039757600080610394611f78565b50505b5035610ef6565b3480156103b3576000806103b0611f78565b50505b5061030b600480360360208110156103d3576000806103d0611f78565b50505b5035610fc5565b3480156103ef576000806103ec611f78565b50505b506104166004803603602081101561040f5760008061040c611f78565b50505b5035611075565b6040516001600160a01b038516815260208101849052811515606082015260806040820181815290820184818151815260200191508051906020019080838360005b83811015610470578082015183820152602001610458565b50505050905090810190601f16801561049d5780820380516001836020036101000a031916815260200191505b509550505050505060405180910390f35b3480156104c3576000806104c0611f78565b50505b506104cc611185565b60405160208082528190810183818151815260200191508051906020019060200280838360005b8381101561050b5780820151838201526020016104f3565b505050509050019250505060405180910390f35b34801561053457600080610531611f78565b50505b506104cc6004803603608081101561055457600080610551611f78565b50505b50803590602081013590604081013515159060600135151561120d565b34801561058657600080610583611f78565b50505b506104cc600480360360208110156105a6576000806105a3611f78565b50505b5035611368565b3480156105c2576000806105bf611f78565b50505b5061030b611535565b3480156105e0576000806105dd611f78565b50505b5061014660048036036020811015610600576000806105fd611f78565b50505b5035611542565b34801561061c57600080610619611f78565b50505b506101466004803603602081101561063c57600080610639611f78565b50505b5035611657565b34801561065857600080610655611f78565b50505b5061030b6004803603606081101561067857600080610675611f78565b50505b6001600160a01b0382351691602081013591810190606081016040820135600160201b8111156106b0576000806106ad611f78565b50505b8201836020820111156106cb576000806106c8611f78565b50505b803590602001918460018302840111600160201b831117156106f5576000806106f2611f78565b50505b5090925090506117ee565b34801561071557600080610712611f78565b50505b5061030b611843565b34801561073357600080610730611f78565b50505b5061030b611848565b3480156107515760008061074e611f78565b50505b50610146600480360360408110156107715760008061076e611f78565b50505b506001600160a01b0381358116916020013516611852565b34801561079e5760008061079b611f78565b50505b50610146600480360360208110156107be576000806107bb611f78565b50505b5035611ae9565b600381816107d1611fe3565b81106107d957fe5b90600052602060002001600091506107ef611fe3565b906101000a90046001600160a01b031681565b5a63996d79a5598160e01b8152602081600483336000905af158601d01573d60011458600c01573d6000803e3d621234565260ea61109c528051925060005b604081101561085857600082820152602001610841565b5050506001600160a01b03165a61086d611f1e565b6001600160a01b03161461088957600080610886611f78565b50505b6001600160a01b038116600090815260026020528190604090206000906108ae611fe3565b906101000a900460ff166108ca576000806108c7611f78565b50505b6001600160a01b03821660009081526002602052604081206001816108ed611fe3565b8160ff0219169083151502179061090261202f565b5060009150505b6001600380610916611fe3565b905003811015610a1557826001600160a01b031660038281610936611fe3565b811061093e57fe5b90600052602060002001600090610953611fe3565b906101000a90046001600160a01b03166001600160a01b03161415610a0d5760036001600380610981611fe3565b9050038161098d611fe3565b811061099557fe5b906000526020600020016000906109aa611fe3565b906101000a90046001600160a01b0316600382816109c6611fe3565b81106109ce57fe5b906000526020600020016001816109e3611fe3565b816001600160a01b0302191690836001600160a01b0316021790610a0561202f565b505050610a15565b600101610909565b5060016003818180610a25611fe3565b905003915081610a35919061207d565b50600380610a41611fe3565b90506004610a4d611fe3565b1115610a6857610a68600380610a61611fe3565b9050611542565b816001600160a01b031660008051602061228483398151915260405160405180910390a25050565b5a610a99611f1e565b6001600160a01b0381166000908152600260205260409020600090610abc611fe3565b906101000a900460ff16610ad857600080610ad5611f78565b50505b815a610ae2611f1e565b60008281526001602052604090206001600160a01b038216600090815260209190915260409020600090610b14611fe3565b906101000a900460ff16610b3057600080610b2d611f78565b50505b60008481526020819052849060409020600301600090610b4e611fe3565b906101000a900460ff1615610b6b57600080610b68611f78565b50505b600085815260016020526040812060005a610b84611f1e565b6001600160a01b03166001600160a01b03168152602001908152602001600020600181610baf611fe3565b8160ff02191690831515021790610bc461202f565b505050845a610bd1611f1e565b6001600160a01b03167ff6a317157440607f36269043eb55f1287a5a19ba2216afeab88cd46cbcfb88e960405160405180910390a35050505050565b600260205280600052604060002060009150610c27611fe3565b906101000a900460ff1681565b6001602052816000526040600020602052806000526040600020600092509050610c27611fe3565b6000805b6005610c6a611fe3565b811015610cea57838015610ca157506000818152602081905260409020600301600090610c95611fe3565b906101000a900460ff16155b80610cd65750828015610cd657506000818152602081905260409020600301600090610ccb611fe3565b906101000a900460ff165b15610ce2576001820191505b600101610c60565b5092915050565b5a63996d79a5598160e01b8152602081600483336000905af158601d01573d60011458600c01573d6000803e3d621234565260ea61109c528051925060005b6040811015610d4757600082820152602001610d30565b5050506001600160a01b03165a610d5c611f1e565b6001600160a01b031614610d7857600080610d75611f78565b50505b6001600160a01b03811660009081526002602052819060409020600090610d9d611fe3565b906101000a900460ff1615610dba57600080610db7611f78565b50505b816001600160a01b038116610dd757600080610dd4611f78565b50505b600380610de2611fe3565b90506001016004610df1611fe3565b60328211158015610e025750818111155b8015610e0d57508015155b8015610e1857508115155b610e2a57600080610e27611f78565b50505b6001600160a01b0385166000908152600260205260019060409020600181610e50611fe3565b8160ff02191690831515021790610e6561202f565b5050506003859080600181610e78611fe3565b018082610e8361202f565b5050600092835291600019830191506020902091929101600181610ea5611fe3565b816001600160a01b0302191690836001600160a01b0316021790610ec761202f565b50505050846001600160a01b031660008051602061226483398151915260405160405180910390a25050505050565b600080805b600380610f06611fe3565b9050811015610fbd576000848152600160205260409020600060038381610f2b611fe3565b8110610f3357fe5b90600052602060002001600090610f48611fe3565b906101000a90046001600160a01b03166001600160a01b03166001600160a01b03168152602001908152602001600020600090610f83611fe3565b906101000a900460ff1615610f99576001820191505b6004610fa3611fe3565b821415610fb557600192505050610fc0565b600101610efb565b50505b919050565b6000805b600380610fd4611fe3565b905081101561106f576000838152600160205260409020600060038381610ff9611fe3565b811061100157fe5b90600052602060002001600090611016611fe3565b906101000a90046001600160a01b03166001600160a01b03166001600160a01b03168152602001908152602001600020600090611051611fe3565b906101000a900460ff1615611067576001820191505b600101610fc9565b50919050565b60006020528060005260406000209050600081611090611fe3565b906101000a90046001600160a01b031690806001016110ad611fe3565b9080600201806110bb611fe3565b600181600116156101000203166002900480601f0160208091040260200160405190810160405281815291906020830182806110f5611fe3565b600181600116156101000203166002900480156111615780601f1061112f576101008083611121611fe3565b040283529160200191611161565b820191906000526020600020905b81611146611fe3565b8152906001019060200180831161113d57829003601f168201915b50505050509080600301600090611176611fe3565b906101000a900460ff16905084565b6060600380611192611fe3565b8060200260200160405190810160405281815291906020830182806111b5611fe3565b801561120257602002820191906000526020600020905b6000826111d7611fe3565b906101000a90046001600160a01b03166001600160a01b0316815260200190600101908083116111cc575b505050505090505b90565b606080600561121a611fe3565b604051908082528060200260200182016040528015611243578160200160208202803883390190505b5090506000805b6005611254611fe3565b8110156112ed5785801561128b5750600081815260208190526040902060030160009061127f611fe3565b906101000a900460ff16155b806112c057508480156112c0575060008181526020819052604090206003016000906112b5611fe3565b906101000a900460ff165b156112e557808383815181106112d257fe5b6020026020010181815250506001820191505b60010161124a565b878703604051908082528060200260200182016040528015611319578160200160208202803883390190505b5093508790505b8681101561135d5782818151811061133457fe5b6020026020010151848983038151811061134a57fe5b6020908102919091010152600101611320565b505050949350505050565b606080600380611376611fe3565b90506040519080825280602002602001820160405280156113a1578160200160208202803883390190505b5090506000805b6003806113b3611fe3565b90508110156114b35760008581526001602052604090206000600383816113d8611fe3565b81106113e057fe5b906000526020600020016000906113f5611fe3565b906101000a90046001600160a01b03166001600160a01b03166001600160a01b03168152602001908152602001600020600090611430611fe3565b906101000a900460ff16156114ab576003818161144b611fe3565b811061145357fe5b90600052602060002001600090611468611fe3565b906101000a90046001600160a01b031683838151811061148457fe5b60200260200101906001600160a01b031690816001600160a01b0316815250506001820191505b6001016113a8565b816040519080825280602002602001820160405280156114dd578160200160208202803883390190505b509350600090505b8181101561152d578281815181106114f957fe5b602002602001015184828151811061150d57fe5b6001600160a01b03909216602092830291909101909101526001016114e5565b505050919050565b600561153f611fe3565b81565b5a63996d79a5598160e01b8152602081600483336000905af158601d01573d60011458600c01573d6000803e3d621234565260ea61109c528051925060005b604081101561159857600082820152602001611581565b5050506001600160a01b03165a6115ad611f1e565b6001600160a01b0316146115c9576000806115c6611f78565b50505b6003806115d4611fe3565b905081603282111580156115e85750818111155b80156115f357508015155b80156115fe57508115155b6116105760008061160d611f78565b50505b8280600461161c61202f565b5050507fa3f1ee9126a074d9326c682f561767f710e927faa811f7a99829d49dc421797a8360405190815260200160405180910390a1505050565b5a611660611f1e565b6001600160a01b0381166000908152600260205260409020600090611683611fe3565b906101000a900460ff1661169f5760008061169c611f78565b50505b600082815260208190528290604081206000906116ba611fe3565b906101000a90046001600160a01b03166001600160a01b031614156116e7576000806116e4611f78565b50505b825a6116f1611f1e565b60008281526001602052604090206001600160a01b038216600090815260209190915260409020600090611723611fe3565b906101000a900460ff16156117405760008061173d611f78565b50505b600085815260016020819052906040902060005a61175c611f1e565b6001600160a01b03166001600160a01b03168152602001908152602001600020600181611787611fe3565b8160ff0219169083151502179061179c61202f565b505050845a6117a9611f1e565b6001600160a01b03167f4a504a94899432a9846e1aa406dceb1bcfd538bb839071d49d1e5e23f5be30ef60405160405180910390a36117e785611ae9565b5050505050565b6000611830858585858080601f0160208091040260200160405190810160405281815292919060208401838380828437600092019190915250611da992505050565b905061183b81611657565b949350505050565b603281565b600461153f611fe3565b5a63996d79a5598160e01b8152602081600483336000905af158601d01573d60011458600c01573d6000803e3d621234565260ea61109c528051925060005b60408110156118a857600082820152602001611891565b5050506001600160a01b03165a6118bd611f1e565b6001600160a01b0316146118d9576000806118d6611f78565b50505b6001600160a01b038216600090815260026020528290604090206000906118fe611fe3565b906101000a900460ff1661191a57600080611917611f78565b50505b6001600160a01b0382166000908152600260205282906040902060009061193f611fe3565b906101000a900460ff161561195c57600080611959611f78565b50505b60005b60038061196a611fe3565b9050811015611a2157846001600160a01b031660038281611989611fe3565b811061199157fe5b906000526020600020016000906119a6611fe3565b906101000a90046001600160a01b03166001600160a01b03161415611a195783600382816119d2611fe3565b81106119da57fe5b906000526020600020016001816119ef611fe3565b816001600160a01b0302191690836001600160a01b0316021790611a1161202f565b505050611a21565b60010161195f565b506001600160a01b0384166000908152600260205260408120600181611a45611fe3565b8160ff02191690831515021790611a5a61202f565b5050506001600160a01b0383166000908152600260205260019060409020600181611a83611fe3565b8160ff02191690831515021790611a9861202f565b505050836001600160a01b031660008051602061228483398151915260405160405180910390a2826001600160a01b031660008051602061226483398151915260405160405180910390a250505050565b5a611af2611f1e565b6001600160a01b0381166000908152600260205260409020600090611b15611fe3565b906101000a900460ff16611b3157600080611b2e611f78565b50505b815a611b3b611f1e565b60008281526001602052604090206001600160a01b038216600090815260209190915260409020600090611b6d611fe3565b906101000a900460ff16611b8957600080611b86611f78565b50505b60008481526020819052849060409020600301600090611ba7611fe3565b906101000a900460ff1615611bc457600080611bc1611f78565b50505b611bcd85610ef6565b156117e757600085815260208190526040812090506001600382018181611bf2611fe3565b8160ff02191690831515021790611c0761202f565b50611d1391506000905082611c1a611fe3565b906101000a90046001600160a01b031682600101611c36611fe3565b8360020180611c43611fe3565b600181600116156101000203166002900490508460020180611c63611fe3565b600181600116156101000203166002900480601f016020809104026020016040519081016040528181529190602083018280611c9d611fe3565b60018160011615610100020316600290048015611d095780601f10611cd7576101008083611cc9611fe3565b040283529160200191611d09565b820191906000526020600020905b81611cee611fe3565b81529060010190602001808311611ce557829003601f168201915b5050505050611ef1565b15611d4a57857f33e13ecb54c3076d8e8bb8c2881800a4d972b792045ffae98fdf46df365fed7560405160405180910390a2611da1565b857f526441bb6c1aba3c9a4a6ca1d6545da9c2333c8c48343ef398eb858d72b7923660405160405180910390a2600060038201600181611d88611fe3565b8160ff02191690831515021790611d9d61202f565b5050505b505050505050565b6000836001600160a01b038116611dc857600080611dc5611f78565b50505b6005611dd2611fe3565b91506040516080810160409081526001600160a01b038716825260208083018790528183018690526000606084018190528581529081905220815181600181611e19611fe3565b816001600160a01b0302191690836001600160a01b0316021790611e3b61202f565b505050602082015181600101611e4f61202f565b5050604082015181600201908051611e6b9291602001906120b1565b50606082015160038201600181611e80611fe3565b8160ff02191690831515021790611e9561202f565b5050509050506001600560008282611eab611fe3565b019250508190611eb961202f565b505050817fc0ba8fe4b176c1714197d43b9cc6bcf797a4a7461c5fe8d0ef6e184ae7601e5160405160405180910390a2509392505050565b6000806040516020840160008287838a8c5a611f0b612151565b50949d9c50505050505050505050505050565b6373509064598160e01b8152602081600483336000905af158601d01573d60011458600c01573d6000803e3d621234565260ea61109c528051935060005b6040811015611f7357600082820152602001611f5c565b505050565b632a2a7adb598160e01b8152600481016020815285602082015260005b86811015611fb0578086015182820160400152602001611f95565b506020828760640184336000905af158601d01573d60011458600c01573d6000803e3d621234565260ea61109c52505050565b6303daa959598160e01b8152836004820152602081602483336000905af158601d01573d60011458600c01573d6000803e3d621234565260ea61109c5280516000825293506020611f5c565b6322bd64c0598160e01b8152836004820152846024820152600081604483336000905af158601d01573d60011458600c01573d6000803e3d621234565260ea61109c52600081526020611f5c565b81612086611fe3565b818361209061202f565b505081811115611f735781836000526020600020611f73928101910161223e565b82806120bb611fe3565b600181600116156101000203166002900490600052602060002090601f016020900481019282601f1061210257805160ff191683800117856120fb61202f565b5050612141565b8280016001018561211161202f565b50508215612141579182015b828111156121415782518261213061202f565b50509160200191906001019061211d565b5061214d92915061223e565b5090565b6385979f76598160e01b8152612184565b808083111561216e5750815b92915050565b808083101561216e575090919050565b836004820152846024820152606060448201528760648201526084810160005b898110156121bc5780890151828201526020016121a4565b506060828a60a40184336000905af158601d01573d60011458600c01573d6000803e3d621234565260ea61109c52815160408301513d6000853e8c8c82606087013350600060045af150596122118e3d612174565b8d0161221d8187612162565b5b82811015612232576000815260200161221e565b50929d50505050505050565b61120a91905b8082111561214d576000808261225861202f565b50505060010161224456fef39e6e1eb0edcf53c221607b54b00cd28f3196fed0a24994dc308b8f611b682d8001553a916ef2f495d26a907cc54d96ed840d7bda71e73194bf5a9df7a76b90",
  "source": "pragma solidity ^0.5.16;\nimport \"./Factory.sol\";\nimport \"./MultiSigWallet.sol\";\n\n\n/// @title Multisignature wallet factory - Allows creation of multisig wallet.\n/// @author Stefan George - <stefan.george@consensys.net>\ncontract MultiSigWalletFactory is Factory {\n\n    /*\n     * Public functions\n     */\n    /// @dev Allows verified creation of multisignature wallet.\n    /// @param _owners List of initial owners.\n    /// @param _required Number of required confirmations.\n    /// @return Returns wallet address.\n    function create(address[] calldata _owners, uint _required)\n        external\n        returns (address wallet)\n    {\n        MultiSigWallet newWallet = new MultiSigWallet(_owners, _required);\n        wallet = address(newWallet);\n        register(wallet);\n    }\n}\n",
  "sourcePath": "/Users/ed/Development/ovm-og-multisigwallet/contracts/MultiSigWalletFactory.sol",
  "compiler": {
    "name": "solc",
    "version": "0.5.16"
  },
  "schemaVersion": "3.3.4",
  "updatedAt": "2021-03-25T16:06:34.418Z",
  "devdoc": {
    "author": "Stefan George - <stefan.george@consensys.net>",
    "methods": {
      "create(address[],uint256)": {
        "details": "Allows verified creation of multisignature wallet.",
        "params": {
          "_owners": "List of initial owners.",
          "_required": "Number of required confirmations."
        },
        "return": "Returns wallet address."
      },
      "getInstantiationCount(address)": {
        "details": "Returns number of instantiations by creator.",
        "params": {
          "creator": "Contract creator."
        },
        "return": "Returns number of instantiations by creator."
      }
    },
    "title": "Multisignature wallet factory - Allows creation of multisig wallet."
  },
  "userdoc": {
    "methods": {}
  }
}