{
  "contractName": "MultiSigWallet",
  "abi": [
    {
      "inputs": [
        {
          "internalType": "address[]",
          "name": "_owners",
          "type": "address[]"
        },
        {
          "internalType": "uint256",
          "name": "_required",
          "type": "uint256"
        }
      ],
      "payable": false,
      "stateMutability": "nonpayable",
      "type": "constructor"
    },
    {
      "anonymous": false,
      "inputs": [
        {
          "indexed": true,
          "internalType": "address",
          "name": "sender",
          "type": "address"
        },
        {
          "indexed": true,
          "internalType": "uint256",
          "name": "transactionId",
          "type": "uint256"
        }
      ],
      "name": "Confirmation",
      "type": "event"
    },
    {
      "anonymous": false,
      "inputs": [
        {
          "indexed": true,
          "internalType": "address",
          "name": "sender",
          "type": "address"
        },
        {
          "indexed": false,
          "internalType": "uint256",
          "name": "value",
          "type": "uint256"
        }
      ],
      "name": "Deposit",
      "type": "event"
    },
    {
      "anonymous": false,
      "inputs": [
        {
          "indexed": true,
          "internalType": "uint256",
          "name": "transactionId",
          "type": "uint256"
        }
      ],
      "name": "Execution",
      "type": "event"
    },
    {
      "anonymous": false,
      "inputs": [
        {
          "indexed": true,
          "internalType": "uint256",
          "name": "transactionId",
          "type": "uint256"
        }
      ],
      "name": "ExecutionFailure",
      "type": "event"
    },
    {
      "anonymous": false,
      "inputs": [
        {
          "indexed": true,
          "internalType": "address",
          "name": "owner",
          "type": "address"
        }
      ],
      "name": "OwnerAddition",
      "type": "event"
    },
    {
      "anonymous": false,
      "inputs": [
        {
          "indexed": true,
          "internalType": "address",
          "name": "owner",
          "type": "address"
        }
      ],
      "name": "OwnerRemoval",
      "type": "event"
    },
    {
      "anonymous": false,
      "inputs": [
        {
          "indexed": false,
          "internalType": "uint256",
          "name": "required",
          "type": "uint256"
        }
      ],
      "name": "RequirementChange",
      "type": "event"
    },
    {
      "anonymous": false,
      "inputs": [
        {
          "indexed": true,
          "internalType": "address",
          "name": "sender",
          "type": "address"
        },
        {
          "indexed": true,
          "internalType": "uint256",
          "name": "transactionId",
          "type": "uint256"
        }
      ],
      "name": "Revocation",
      "type": "event"
    },
    {
      "anonymous": false,
      "inputs": [
        {
          "indexed": true,
          "internalType": "uint256",
          "name": "transactionId",
          "type": "uint256"
        }
      ],
      "name": "Submission",
      "type": "event"
    },
    {
      "payable": true,
      "stateMutability": "payable",
      "type": "fallback"
    },
    {
      "constant": true,
      "inputs": [],
      "name": "MAX_OWNER_COUNT",
      "outputs": [
        {
          "internalType": "uint256",
          "name": "",
          "type": "uint256"
        }
      ],
      "payable": false,
      "stateMutability": "view",
      "type": "function"
    },
    {
      "constant": true,
      "inputs": [
        {
          "internalType": "uint256",
          "name": "",
          "type": "uint256"
        },
        {
          "internalType": "address",
          "name": "",
          "type": "address"
        }
      ],
      "name": "confirmations",
      "outputs": [
        {
          "internalType": "bool",
          "name": "",
          "type": "bool"
        }
      ],
      "payable": false,
      "stateMutability": "view",
      "type": "function"
    },
    {
      "constant": true,
      "inputs": [
        {
          "internalType": "address",
          "name": "",
          "type": "address"
        }
      ],
      "name": "isOwner",
      "outputs": [
        {
          "internalType": "bool",
          "name": "",
          "type": "bool"
        }
      ],
      "payable": false,
      "stateMutability": "view",
      "type": "function"
    },
    {
      "constant": true,
      "inputs": [
        {
          "internalType": "uint256",
          "name": "",
          "type": "uint256"
        }
      ],
      "name": "owners",
      "outputs": [
        {
          "internalType": "address",
          "name": "",
          "type": "address"
        }
      ],
      "payable": false,
      "stateMutability": "view",
      "type": "function"
    },
    {
      "constant": true,
      "inputs": [],
      "name": "required",
      "outputs": [
        {
          "internalType": "uint256",
          "name": "",
          "type": "uint256"
        }
      ],
      "payable": false,
      "stateMutability": "view",
      "type": "function"
    },
    {
      "constant": true,
      "inputs": [],
      "name": "transactionCount",
      "outputs": [
        {
          "internalType": "uint256",
          "name": "",
          "type": "uint256"
        }
      ],
      "payable": false,
      "stateMutability": "view",
      "type": "function"
    },
    {
      "constant": true,
      "inputs": [
        {
          "internalType": "uint256",
          "name": "",
          "type": "uint256"
        }
      ],
      "name": "transactions",
      "outputs": [
        {
          "internalType": "address",
          "name": "destination",
          "type": "address"
        },
        {
          "internalType": "uint256",
          "name": "value",
          "type": "uint256"
        },
        {
          "internalType": "bytes",
          "name": "data",
          "type": "bytes"
        },
        {
          "internalType": "bool",
          "name": "executed",
          "type": "bool"
        }
      ],
      "payable": false,
      "stateMutability": "view",
      "type": "function"
    },
    {
      "constant": false,
      "inputs": [
        {
          "internalType": "address",
          "name": "owner",
          "type": "address"
        }
      ],
      "name": "addOwner",
      "outputs": [],
      "payable": false,
      "stateMutability": "nonpayable",
      "type": "function"
    },
    {
      "constant": false,
      "inputs": [
        {
          "internalType": "address",
          "name": "owner",
          "type": "address"
        }
      ],
      "name": "removeOwner",
      "outputs": [],
      "payable": false,
      "stateMutability": "nonpayable",
      "type": "function"
    },
    {
      "constant": false,
      "inputs": [
        {
          "internalType": "address",
          "name": "owner",
          "type": "address"
        },
        {
          "internalType": "address",
          "name": "newOwner",
          "type": "address"
        }
      ],
      "name": "replaceOwner",
      "outputs": [],
      "payable": false,
      "stateMutability": "nonpayable",
      "type": "function"
    },
    {
      "constant": false,
      "inputs": [
        {
          "internalType": "uint256",
          "name": "_required",
          "type": "uint256"
        }
      ],
      "name": "changeRequirement",
      "outputs": [],
      "payable": false,
      "stateMutability": "nonpayable",
      "type": "function"
    },
    {
      "constant": false,
      "inputs": [
        {
          "internalType": "address",
          "name": "destination",
          "type": "address"
        },
        {
          "internalType": "uint256",
          "name": "value",
          "type": "uint256"
        },
        {
          "internalType": "bytes",
          "name": "data",
          "type": "bytes"
        }
      ],
      "name": "submitTransaction",
      "outputs": [
        {
          "internalType": "uint256",
          "name": "transactionId",
          "type": "uint256"
        }
      ],
      "payable": false,
      "stateMutability": "nonpayable",
      "type": "function"
    },
    {
      "constant": false,
      "inputs": [
        {
          "internalType": "uint256",
          "name": "transactionId",
          "type": "uint256"
        }
      ],
      "name": "confirmTransaction",
      "outputs": [],
      "payable": false,
      "stateMutability": "nonpayable",
      "type": "function"
    },
    {
      "constant": false,
      "inputs": [
        {
          "internalType": "uint256",
          "name": "transactionId",
          "type": "uint256"
        }
      ],
      "name": "revokeConfirmation",
      "outputs": [],
      "payable": false,
      "stateMutability": "nonpayable",
      "type": "function"
    },
    {
      "constant": false,
      "inputs": [
        {
          "internalType": "uint256",
          "name": "transactionId",
          "type": "uint256"
        }
      ],
      "name": "executeTransaction",
      "outputs": [],
      "payable": false,
      "stateMutability": "nonpayable",
      "type": "function"
    },
    {
      "constant": true,
      "inputs": [
        {
          "internalType": "uint256",
          "name": "transactionId",
          "type": "uint256"
        }
      ],
      "name": "isConfirmed",
      "outputs": [
        {
          "internalType": "bool",
          "name": "",
          "type": "bool"
        }
      ],
      "payable": false,
      "stateMutability": "view",
      "type": "function"
    },
    {
      "constant": true,
      "inputs": [
        {
          "internalType": "uint256",
          "name": "transactionId",
          "type": "uint256"
        }
      ],
      "name": "getConfirmationCount",
      "outputs": [
        {
          "internalType": "uint256",
          "name": "count",
          "type": "uint256"
        }
      ],
      "payable": false,
      "stateMutability": "view",
      "type": "function"
    },
    {
      "constant": true,
      "inputs": [
        {
          "internalType": "bool",
          "name": "pending",
          "type": "bool"
        },
        {
          "internalType": "bool",
          "name": "executed",
          "type": "bool"
        }
      ],
      "name": "getTransactionCount",
      "outputs": [
        {
          "internalType": "uint256",
          "name": "count",
          "type": "uint256"
        }
      ],
      "payable": false,
      "stateMutability": "view",
      "type": "function"
    },
    {
      "constant": true,
      "inputs": [],
      "name": "getOwners",
      "outputs": [
        {
          "internalType": "address[]",
          "name": "",
          "type": "address[]"
        }
      ],
      "payable": false,
      "stateMutability": "view",
      "type": "function"
    },
    {
      "constant": true,
      "inputs": [
        {
          "internalType": "uint256",
          "name": "transactionId",
          "type": "uint256"
        }
      ],
      "name": "getConfirmations",
      "outputs": [
        {
          "internalType": "address[]",
          "name": "_confirmations",
          "type": "address[]"
        }
      ],
      "payable": false,
      "stateMutability": "view",
      "type": "function"
    },
    {
      "constant": true,
      "inputs": [
        {
          "internalType": "uint256",
          "name": "from",
          "type": "uint256"
        },
        {
          "internalType": "uint256",
          "name": "to",
          "type": "uint256"
        },
        {
          "internalType": "bool",
          "name": "pending",
          "type": "bool"
        },
        {
          "internalType": "bool",
          "name": "executed",
          "type": "bool"
        }
      ],
      "name": "getTransactionIds",
      "outputs": [
        {
          "internalType": "uint256[]",
          "name": "_transactionIds",
          "type": "uint256[]"
        }
      ],
      "payable": false,
      "stateMutability": "view",
      "type": "function"
    }
  ],
  "bytecode": "0x60806040523480156200001c576000806200001962000285565b50505b506040516200273838038062002738833981810160405260408110156200004d576000806200004a62000285565b50505b810190808051604051939291908464010000000082111562000079576000806200007662000285565b50505b9083019060208201858111156200009a576000806200009762000285565b50505b8251866020820283011164010000000082111715620000c357600080620000c062000285565b50505b825250602001908051906020019060200280838360005b83811015620000f4578082015183820152602001620000da565b5050505090500160405260200180519250839150505181603282111580156200011d5750818111155b80156200012957508015155b80156200013557508115155b6200014a576000806200014762000285565b50505b60005b84518110156200025357600260008683815181106200016857fe5b60200260200101516001600160a01b03166001600160a01b031681526020019081526020016000206000906200019d620002f2565b906101000a900460ff16158015620001d357506000858281518110620001bf57fe5b60200260200101516001600160a01b031614155b620001e857600080620001e562000285565b50505b600160026000878481518110620001fb57fe5b60200260200101516001600160a01b03166001600160a01b0316815260200190815260200160002060018162000230620002f2565b8160ff021916908315150217906200024762000354565b5050506001016200014d565b50600384805162000269929160200190620003a3565b50828060046200027862000354565b5050505050505062000480565b632a2a7adb598160e01b8152600481016020815285602082015260005b86811015620002bf578086015182820160400152602001620002a2565b506020828760640184336000905af158600e01573d6000803e3d6000fd5b3d6001141558600a015760016000f35b505050565b6303daa959598160e01b8152836004820152602081602483336000905af158600e01573d6000803e3d6000fd5b3d6001141558600a015760016000f35b8051935060005b60408110156200034f5760008282015260200162000336565b505050565b6322bd64c0598160e01b8152836004820152846024820152600081604483336000905af158600e01573d6000803e3d6000fd5b3d6001141558600a015760016000f35b60008152602062000336565b8280620003af620002f2565b8282620003bb62000354565b505090600052602060002090810192821562000428579160200282015b828111156200042857825182600181620003f1620002f2565b816001600160a01b0302191690836001600160a01b03160217906200041562000354565b50505091602001919060010190620003d8565b50620004369291506200043a565b5090565b6200047d91905b8082111562000436576000816001816200045a620002f2565b906001600160a01b03021916906200047162000354565b50505060010162000441565b90565b6122a880620004906000396000f3fe6080604052600436106100fa5760003560e01c8063025e7c2714610148578063173825d9146101a057806320ea8d86146101e55780632f54bf6e146102215780633411c81c1461027a57806354741525146102c55780637065cb481461031d578063784547a7146103625780638b51d13f1461039e5780639ace38c2146103da578063a0e67e2b146104ae578063a8abe69a1461051f578063b5dc40c314610571578063b77bf600146105ad578063ba51a6df146105cb578063c01a8c8414610607578063c642747414610643578063d74f8edd14610700578063dc8452cd1461071e578063e20056e61461073c578063ee22610b14610789575b3415610146575a610109611f22565b6001600160a01b03167fe1fffcc4923d04b559f4d29a8bfc6cda04eb5b0d3c460751c2402c5c5cc9109c3460405190815260200160405180910390a25b005b34801561015d5760008061015a611f7c565b50505b506101846004803603602081101561017d5760008061017a611f7c565b50505b50356107c5565b6040516001600160a01b03909116815260200160405180910390f35b3480156101b5576000806101b2611f7c565b50505b50610146600480360360208110156101d5576000806101d2611f7c565b50505b50356001600160a01b0316610802565b3480156101fa576000806101f7611f7c565b50505b506101466004803603602081101561021a57600080610217611f7c565b50505b5035610a90565b34801561023657600080610233611f7c565b50505b506102666004803603602081101561025657600080610253611f7c565b50505b50356001600160a01b0316610c0d565b604051901515815260200160405180910390f35b34801561028f5760008061028c611f7c565b50505b50610266600480360360408110156102af576000806102ac611f7c565b50505b50803590602001356001600160a01b0316610c34565b3480156102da576000806102d7611f7c565b50505b5061030b600480360360408110156102fa576000806102f7611f7c565b50505b508035151590602001351515610c5c565b60405190815260200160405180910390f35b3480156103325760008061032f611f7c565b50505b50610146600480360360208110156103525760008061034f611f7c565b50505b50356001600160a01b0316610cf1565b34801561037757600080610374611f7c565b50505b506102666004803603602081101561039757600080610394611f7c565b50505b5035610ef6565b3480156103b3576000806103b0611f7c565b50505b5061030b600480360360208110156103d3576000806103d0611f7c565b50505b5035610fc5565b3480156103ef576000806103ec611f7c565b50505b506104166004803603602081101561040f5760008061040c611f7c565b50505b5035611075565b6040516001600160a01b038516815260208101849052811515606082015260806040820181815290820184818151815260200191508051906020019080838360005b83811015610470578082015183820152602001610458565b50505050905090810190601f16801561049d5780820380516001836020036101000a031916815260200191505b509550505050505060405180910390f35b3480156104c3576000806104c0611f7c565b50505b506104cc611185565b60405160208082528190810183818151815260200191508051906020019060200280838360005b8381101561050b5780820151838201526020016104f3565b505050509050019250505060405180910390f35b34801561053457600080610531611f7c565b50505b506104cc6004803603608081101561055457600080610551611f7c565b50505b50803590602081013590604081013515159060600135151561120d565b34801561058657600080610583611f7c565b50505b506104cc600480360360208110156105a6576000806105a3611f7c565b50505b5035611368565b3480156105c2576000806105bf611f7c565b50505b5061030b611535565b3480156105e0576000806105dd611f7c565b50505b5061014660048036036020811015610600576000806105fd611f7c565b50505b5035611542565b34801561061c57600080610619611f7c565b50505b506101466004803603602081101561063c57600080610639611f7c565b50505b5035611657565b34801561065857600080610655611f7c565b50505b5061030b6004803603606081101561067857600080610675611f7c565b50505b6001600160a01b0382351691602081013591810190606081016040820135600160201b8111156106b0576000806106ad611f7c565b50505b8201836020820111156106cb576000806106c8611f7c565b50505b803590602001918460018302840111600160201b831117156106f5576000806106f2611f7c565b50505b5090925090506117ee565b34801561071557600080610712611f7c565b50505b5061030b611843565b34801561073357600080610730611f7c565b50505b5061030b611848565b3480156107515760008061074e611f7c565b50505b50610146600480360360408110156107715760008061076e611f7c565b50505b506001600160a01b0381358116916020013516611852565b34801561079e5760008061079b611f7c565b50505b50610146600480360360208110156107be576000806107bb611f7c565b50505b5035611ae9565b600381816107d1611fe7565b81106107d957fe5b90600052602060002001600091506107ef611fe7565b906101000a90046001600160a01b031681565b5a63996d79a5598160e01b8152602081600483336000905af158600e01573d6000803e3d6000fd5b3d6001141558600a015760016000f35b8051925060005b604081101561085857600082820152602001610841565b5050506001600160a01b03165a61086d611f22565b6001600160a01b03161461088957600080610886611f7c565b50505b6001600160a01b038116600090815260026020528190604090206000906108ae611fe7565b906101000a900460ff166108ca576000806108c7611f7c565b50505b6001600160a01b03821660009081526002602052604081206001816108ed611fe7565b8160ff02191690831515021790610902612033565b5060009150505b6001600380610916611fe7565b905003811015610a1557826001600160a01b031660038281610936611fe7565b811061093e57fe5b90600052602060002001600090610953611fe7565b906101000a90046001600160a01b03166001600160a01b03161415610a0d5760036001600380610981611fe7565b9050038161098d611fe7565b811061099557fe5b906000526020600020016000906109aa611fe7565b906101000a90046001600160a01b0316600382816109c6611fe7565b81106109ce57fe5b906000526020600020016001816109e3611fe7565b816001600160a01b0302191690836001600160a01b0316021790610a05612033565b505050610a15565b600101610909565b5060016003818180610a25611fe7565b905003915081610a359190612081565b50600380610a41611fe7565b90506004610a4d611fe7565b1115610a6857610a68600380610a61611fe7565b9050611542565b816001600160a01b031660008051602061228883398151915260405160405180910390a25050565b5a610a99611f22565b6001600160a01b0381166000908152600260205260409020600090610abc611fe7565b906101000a900460ff16610ad857600080610ad5611f7c565b50505b815a610ae2611f22565b60008281526001602052604090206001600160a01b038216600090815260209190915260409020600090610b14611fe7565b906101000a900460ff16610b3057600080610b2d611f7c565b50505b60008481526020819052849060409020600301600090610b4e611fe7565b906101000a900460ff1615610b6b57600080610b68611f7c565b50505b600085815260016020526040812060005a610b84611f22565b6001600160a01b03166001600160a01b03168152602001908152602001600020600181610baf611fe7565b8160ff02191690831515021790610bc4612033565b505050845a610bd1611f22565b6001600160a01b03167ff6a317157440607f36269043eb55f1287a5a19ba2216afeab88cd46cbcfb88e960405160405180910390a35050505050565b600260205280600052604060002060009150610c27611fe7565b906101000a900460ff1681565b6001602052816000526040600020602052806000526040600020600092509050610c27611fe7565b6000805b6005610c6a611fe7565b811015610cea57838015610ca157506000818152602081905260409020600301600090610c95611fe7565b906101000a900460ff16155b80610cd65750828015610cd657506000818152602081905260409020600301600090610ccb611fe7565b906101000a900460ff165b15610ce2576001820191505b600101610c60565b5092915050565b5a63996d79a5598160e01b8152602081600483336000905af158600e01573d6000803e3d6000fd5b3d6001141558600a015760016000f35b8051925060005b6040811015610d4757600082820152602001610d30565b5050506001600160a01b03165a610d5c611f22565b6001600160a01b031614610d7857600080610d75611f7c565b50505b6001600160a01b03811660009081526002602052819060409020600090610d9d611fe7565b906101000a900460ff1615610dba57600080610db7611f7c565b50505b816001600160a01b038116610dd757600080610dd4611f7c565b50505b600380610de2611fe7565b90506001016004610df1611fe7565b60328211158015610e025750818111155b8015610e0d57508015155b8015610e1857508115155b610e2a57600080610e27611f7c565b50505b6001600160a01b0385166000908152600260205260019060409020600181610e50611fe7565b8160ff02191690831515021790610e65612033565b5050506003859080600181610e78611fe7565b018082610e83612033565b5050600092835291600019830191506020902091929101600181610ea5611fe7565b816001600160a01b0302191690836001600160a01b0316021790610ec7612033565b50505050846001600160a01b031660008051602061226883398151915260405160405180910390a25050505050565b600080805b600380610f06611fe7565b9050811015610fbd576000848152600160205260409020600060038381610f2b611fe7565b8110610f3357fe5b90600052602060002001600090610f48611fe7565b906101000a90046001600160a01b03166001600160a01b03166001600160a01b03168152602001908152602001600020600090610f83611fe7565b906101000a900460ff1615610f99576001820191505b6004610fa3611fe7565b821415610fb557600192505050610fc0565b600101610efb565b50505b919050565b6000805b600380610fd4611fe7565b905081101561106f576000838152600160205260409020600060038381610ff9611fe7565b811061100157fe5b90600052602060002001600090611016611fe7565b906101000a90046001600160a01b03166001600160a01b03166001600160a01b03168152602001908152602001600020600090611051611fe7565b906101000a900460ff1615611067576001820191505b600101610fc9565b50919050565b60006020528060005260406000209050600081611090611fe7565b906101000a90046001600160a01b031690806001016110ad611fe7565b9080600201806110bb611fe7565b600181600116156101000203166002900480601f0160208091040260200160405190810160405281815291906020830182806110f5611fe7565b600181600116156101000203166002900480156111615780601f1061112f576101008083611121611fe7565b040283529160200191611161565b820191906000526020600020905b81611146611fe7565b8152906001019060200180831161113d57829003601f168201915b50505050509080600301600090611176611fe7565b906101000a900460ff16905084565b6060600380611192611fe7565b8060200260200160405190810160405281815291906020830182806111b5611fe7565b801561120257602002820191906000526020600020905b6000826111d7611fe7565b906101000a90046001600160a01b03166001600160a01b0316815260200190600101908083116111cc575b505050505090505b90565b606080600561121a611fe7565b604051908082528060200260200182016040528015611243578160200160208202803883390190505b5090506000805b6005611254611fe7565b8110156112ed5785801561128b5750600081815260208190526040902060030160009061127f611fe7565b906101000a900460ff16155b806112c057508480156112c0575060008181526020819052604090206003016000906112b5611fe7565b906101000a900460ff165b156112e557808383815181106112d257fe5b6020026020010181815250506001820191505b60010161124a565b878703604051908082528060200260200182016040528015611319578160200160208202803883390190505b5093508790505b8681101561135d5782818151811061133457fe5b6020026020010151848983038151811061134a57fe5b6020908102919091010152600101611320565b505050949350505050565b606080600380611376611fe7565b90506040519080825280602002602001820160405280156113a1578160200160208202803883390190505b5090506000805b6003806113b3611fe7565b90508110156114b35760008581526001602052604090206000600383816113d8611fe7565b81106113e057fe5b906000526020600020016000906113f5611fe7565b906101000a90046001600160a01b03166001600160a01b03166001600160a01b03168152602001908152602001600020600090611430611fe7565b906101000a900460ff16156114ab576003818161144b611fe7565b811061145357fe5b90600052602060002001600090611468611fe7565b906101000a90046001600160a01b031683838151811061148457fe5b60200260200101906001600160a01b031690816001600160a01b0316815250506001820191505b6001016113a8565b816040519080825280602002602001820160405280156114dd578160200160208202803883390190505b509350600090505b8181101561152d578281815181106114f957fe5b602002602001015184828151811061150d57fe5b6001600160a01b03909216602092830291909101909101526001016114e5565b505050919050565b600561153f611fe7565b81565b5a63996d79a5598160e01b8152602081600483336000905af158600e01573d6000803e3d6000fd5b3d6001141558600a015760016000f35b8051925060005b604081101561159857600082820152602001611581565b5050506001600160a01b03165a6115ad611f22565b6001600160a01b0316146115c9576000806115c6611f7c565b50505b6003806115d4611fe7565b905081603282111580156115e85750818111155b80156115f357508015155b80156115fe57508115155b6116105760008061160d611f7c565b50505b8280600461161c612033565b5050507fa3f1ee9126a074d9326c682f561767f710e927faa811f7a99829d49dc421797a8360405190815260200160405180910390a1505050565b5a611660611f22565b6001600160a01b0381166000908152600260205260409020600090611683611fe7565b906101000a900460ff1661169f5760008061169c611f7c565b50505b600082815260208190528290604081206000906116ba611fe7565b906101000a90046001600160a01b03166001600160a01b031614156116e7576000806116e4611f7c565b50505b825a6116f1611f22565b60008281526001602052604090206001600160a01b038216600090815260209190915260409020600090611723611fe7565b906101000a900460ff16156117405760008061173d611f7c565b50505b600085815260016020819052906040902060005a61175c611f22565b6001600160a01b03166001600160a01b03168152602001908152602001600020600181611787611fe7565b8160ff0219169083151502179061179c612033565b505050845a6117a9611f22565b6001600160a01b03167f4a504a94899432a9846e1aa406dceb1bcfd538bb839071d49d1e5e23f5be30ef60405160405180910390a36117e785611ae9565b5050505050565b6000611830858585858080601f0160208091040260200160405190810160405281815292919060208401838380828437600092019190915250611da992505050565b905061183b81611657565b949350505050565b603281565b600461153f611fe7565b5a63996d79a5598160e01b8152602081600483336000905af158600e01573d6000803e3d6000fd5b3d6001141558600a015760016000f35b8051925060005b60408110156118a857600082820152602001611891565b5050506001600160a01b03165a6118bd611f22565b6001600160a01b0316146118d9576000806118d6611f7c565b50505b6001600160a01b038216600090815260026020528290604090206000906118fe611fe7565b906101000a900460ff1661191a57600080611917611f7c565b50505b6001600160a01b0382166000908152600260205282906040902060009061193f611fe7565b906101000a900460ff161561195c57600080611959611f7c565b50505b60005b60038061196a611fe7565b9050811015611a2157846001600160a01b031660038281611989611fe7565b811061199157fe5b906000526020600020016000906119a6611fe7565b906101000a90046001600160a01b03166001600160a01b03161415611a195783600382816119d2611fe7565b81106119da57fe5b906000526020600020016001816119ef611fe7565b816001600160a01b0302191690836001600160a01b0316021790611a11612033565b505050611a21565b60010161195f565b506001600160a01b0384166000908152600260205260408120600181611a45611fe7565b8160ff02191690831515021790611a5a612033565b5050506001600160a01b0383166000908152600260205260019060409020600181611a83611fe7565b8160ff02191690831515021790611a98612033565b505050836001600160a01b031660008051602061228883398151915260405160405180910390a2826001600160a01b031660008051602061226883398151915260405160405180910390a250505050565b5a611af2611f22565b6001600160a01b0381166000908152600260205260409020600090611b15611fe7565b906101000a900460ff16611b3157600080611b2e611f7c565b50505b815a611b3b611f22565b60008281526001602052604090206001600160a01b038216600090815260209190915260409020600090611b6d611fe7565b906101000a900460ff16611b8957600080611b86611f7c565b50505b60008481526020819052849060409020600301600090611ba7611fe7565b906101000a900460ff1615611bc457600080611bc1611f7c565b50505b611bcd85610ef6565b156117e757600085815260208190526040812090506001600382018181611bf2611fe7565b8160ff02191690831515021790611c07612033565b50611d1391506000905082611c1a611fe7565b906101000a90046001600160a01b031682600101611c36611fe7565b8360020180611c43611fe7565b600181600116156101000203166002900490508460020180611c63611fe7565b600181600116156101000203166002900480601f016020809104026020016040519081016040528181529190602083018280611c9d611fe7565b60018160011615610100020316600290048015611d095780601f10611cd7576101008083611cc9611fe7565b040283529160200191611d09565b820191906000526020600020905b81611cee611fe7565b81529060010190602001808311611ce557829003601f168201915b5050505050611ef1565b15611d4a57857f33e13ecb54c3076d8e8bb8c2881800a4d972b792045ffae98fdf46df365fed7560405160405180910390a2611da1565b857f526441bb6c1aba3c9a4a6ca1d6545da9c2333c8c48343ef398eb858d72b7923660405160405180910390a2600060038201600181611d88611fe7565b8160ff02191690831515021790611d9d612033565b5050505b505050505050565b6000836001600160a01b038116611dc857600080611dc5611f7c565b50505b6005611dd2611fe7565b91506040516080810160409081526001600160a01b038716825260208083018790528183018690526000606084018190528581529081905220815181600181611e19611fe7565b816001600160a01b0302191690836001600160a01b0316021790611e3b612033565b505050602082015181600101611e4f612033565b5050604082015181600201908051611e6b9291602001906120b5565b50606082015160038201600181611e80611fe7565b8160ff02191690831515021790611e95612033565b5050509050506001600560008282611eab611fe7565b019250508190611eb9612033565b505050817fc0ba8fe4b176c1714197d43b9cc6bcf797a4a7461c5fe8d0ef6e184ae7601e5160405160405180910390a2509392505050565b6000806040516020840160008287838a8c6187965a03611f0f612155565b50949d9c50505050505050505050505050565b6373509064598160e01b8152602081600483336000905af158600e01573d6000803e3d6000fd5b3d6001141558600a015760016000f35b8051935060005b6040811015611f7757600082820152602001611f60565b505050565b632a2a7adb598160e01b8152600481016020815285602082015260005b86811015611fb4578086015182820160400152602001611f99565b506020828760640184336000905af158600e01573d6000803e3d6000fd5b3d6001141558600a015760016000f35b505050565b6303daa959598160e01b8152836004820152602081602483336000905af158600e01573d6000803e3d6000fd5b3d6001141558600a015760016000f35b80516000825293506020611f60565b6322bd64c0598160e01b8152836004820152846024820152600081604483336000905af158600e01573d6000803e3d6000fd5b3d6001141558600a015760016000f35b600081526020611f60565b8161208a611fe7565b8183612094612033565b505081811115611f775781836000526020600020611f779281019101612242565b82806120bf611fe7565b600181600116156101000203166002900490600052602060002090601f016020900481019282601f1061210657805160ff191683800117856120ff612033565b5050612145565b82800160010185612115612033565b50508215612145579182015b8281111561214557825182612134612033565b505091602001919060010190612121565b50612151929150612242565b5090565b6385979f76598160e01b8152612188565b80808311156121725750815b92915050565b8080831015612172575090919050565b836004820152846024820152606060448201528760648201526084810160005b898110156121c05780890151828201526020016121a8565b506060828a60a40184336000905af158600e01573d6000803e3d6000fd5b3d6001141558600a015760016000f35b815160408301513d6000853e8c8c82606087013350600060045af150596122158e3d612178565b8d016122218187612166565b5b828110156122365760008152602001612222565b50929d50505050505050565b61120a91905b80821115612151576000808261225c612033565b50505060010161224856fef39e6e1eb0edcf53c221607b54b00cd28f3196fed0a24994dc308b8f611b682d8001553a916ef2f495d26a907cc54d96ed840d7bda71e73194bf5a9df7a76b90",
  "deployedBytecode": "0x6080604052600436106100fa5760003560e01c8063025e7c2714610148578063173825d9146101a057806320ea8d86146101e55780632f54bf6e146102215780633411c81c1461027a57806354741525146102c55780637065cb481461031d578063784547a7146103625780638b51d13f1461039e5780639ace38c2146103da578063a0e67e2b146104ae578063a8abe69a1461051f578063b5dc40c314610571578063b77bf600146105ad578063ba51a6df146105cb578063c01a8c8414610607578063c642747414610643578063d74f8edd14610700578063dc8452cd1461071e578063e20056e61461073c578063ee22610b14610789575b3415610146575a610109611f22565b6001600160a01b03167fe1fffcc4923d04b559f4d29a8bfc6cda04eb5b0d3c460751c2402c5c5cc9109c3460405190815260200160405180910390a25b005b34801561015d5760008061015a611f7c565b50505b506101846004803603602081101561017d5760008061017a611f7c565b50505b50356107c5565b6040516001600160a01b03909116815260200160405180910390f35b3480156101b5576000806101b2611f7c565b50505b50610146600480360360208110156101d5576000806101d2611f7c565b50505b50356001600160a01b0316610802565b3480156101fa576000806101f7611f7c565b50505b506101466004803603602081101561021a57600080610217611f7c565b50505b5035610a90565b34801561023657600080610233611f7c565b50505b506102666004803603602081101561025657600080610253611f7c565b50505b50356001600160a01b0316610c0d565b604051901515815260200160405180910390f35b34801561028f5760008061028c611f7c565b50505b50610266600480360360408110156102af576000806102ac611f7c565b50505b50803590602001356001600160a01b0316610c34565b3480156102da576000806102d7611f7c565b50505b5061030b600480360360408110156102fa576000806102f7611f7c565b50505b508035151590602001351515610c5c565b60405190815260200160405180910390f35b3480156103325760008061032f611f7c565b50505b50610146600480360360208110156103525760008061034f611f7c565b50505b50356001600160a01b0316610cf1565b34801561037757600080610374611f7c565b50505b506102666004803603602081101561039757600080610394611f7c565b50505b5035610ef6565b3480156103b3576000806103b0611f7c565b50505b5061030b600480360360208110156103d3576000806103d0611f7c565b50505b5035610fc5565b3480156103ef576000806103ec611f7c565b50505b506104166004803603602081101561040f5760008061040c611f7c565b50505b5035611075565b6040516001600160a01b038516815260208101849052811515606082015260806040820181815290820184818151815260200191508051906020019080838360005b83811015610470578082015183820152602001610458565b50505050905090810190601f16801561049d5780820380516001836020036101000a031916815260200191505b509550505050505060405180910390f35b3480156104c3576000806104c0611f7c565b50505b506104cc611185565b60405160208082528190810183818151815260200191508051906020019060200280838360005b8381101561050b5780820151838201526020016104f3565b505050509050019250505060405180910390f35b34801561053457600080610531611f7c565b50505b506104cc6004803603608081101561055457600080610551611f7c565b50505b50803590602081013590604081013515159060600135151561120d565b34801561058657600080610583611f7c565b50505b506104cc600480360360208110156105a6576000806105a3611f7c565b50505b5035611368565b3480156105c2576000806105bf611f7c565b50505b5061030b611535565b3480156105e0576000806105dd611f7c565b50505b5061014660048036036020811015610600576000806105fd611f7c565b50505b5035611542565b34801561061c57600080610619611f7c565b50505b506101466004803603602081101561063c57600080610639611f7c565b50505b5035611657565b34801561065857600080610655611f7c565b50505b5061030b6004803603606081101561067857600080610675611f7c565b50505b6001600160a01b0382351691602081013591810190606081016040820135600160201b8111156106b0576000806106ad611f7c565b50505b8201836020820111156106cb576000806106c8611f7c565b50505b803590602001918460018302840111600160201b831117156106f5576000806106f2611f7c565b50505b5090925090506117ee565b34801561071557600080610712611f7c565b50505b5061030b611843565b34801561073357600080610730611f7c565b50505b5061030b611848565b3480156107515760008061074e611f7c565b50505b50610146600480360360408110156107715760008061076e611f7c565b50505b506001600160a01b0381358116916020013516611852565b34801561079e5760008061079b611f7c565b50505b50610146600480360360208110156107be576000806107bb611f7c565b50505b5035611ae9565b600381816107d1611fe7565b81106107d957fe5b90600052602060002001600091506107ef611fe7565b906101000a90046001600160a01b031681565b5a63996d79a5598160e01b8152602081600483336000905af158601d01573d60011458600c01573d6000803e3d621234565260ea61109c528051925060005b604081101561085857600082820152602001610841565b5050506001600160a01b03165a61086d611f22565b6001600160a01b03161461088957600080610886611f7c565b50505b6001600160a01b038116600090815260026020528190604090206000906108ae611fe7565b906101000a900460ff166108ca576000806108c7611f7c565b50505b6001600160a01b03821660009081526002602052604081206001816108ed611fe7565b8160ff02191690831515021790610902612033565b5060009150505b6001600380610916611fe7565b905003811015610a1557826001600160a01b031660038281610936611fe7565b811061093e57fe5b90600052602060002001600090610953611fe7565b906101000a90046001600160a01b03166001600160a01b03161415610a0d5760036001600380610981611fe7565b9050038161098d611fe7565b811061099557fe5b906000526020600020016000906109aa611fe7565b906101000a90046001600160a01b0316600382816109c6611fe7565b81106109ce57fe5b906000526020600020016001816109e3611fe7565b816001600160a01b0302191690836001600160a01b0316021790610a05612033565b505050610a15565b600101610909565b5060016003818180610a25611fe7565b905003915081610a359190612081565b50600380610a41611fe7565b90506004610a4d611fe7565b1115610a6857610a68600380610a61611fe7565b9050611542565b816001600160a01b031660008051602061228883398151915260405160405180910390a25050565b5a610a99611f22565b6001600160a01b0381166000908152600260205260409020600090610abc611fe7565b906101000a900460ff16610ad857600080610ad5611f7c565b50505b815a610ae2611f22565b60008281526001602052604090206001600160a01b038216600090815260209190915260409020600090610b14611fe7565b906101000a900460ff16610b3057600080610b2d611f7c565b50505b60008481526020819052849060409020600301600090610b4e611fe7565b906101000a900460ff1615610b6b57600080610b68611f7c565b50505b600085815260016020526040812060005a610b84611f22565b6001600160a01b03166001600160a01b03168152602001908152602001600020600181610baf611fe7565b8160ff02191690831515021790610bc4612033565b505050845a610bd1611f22565b6001600160a01b03167ff6a317157440607f36269043eb55f1287a5a19ba2216afeab88cd46cbcfb88e960405160405180910390a35050505050565b600260205280600052604060002060009150610c27611fe7565b906101000a900460ff1681565b6001602052816000526040600020602052806000526040600020600092509050610c27611fe7565b6000805b6005610c6a611fe7565b811015610cea57838015610ca157506000818152602081905260409020600301600090610c95611fe7565b906101000a900460ff16155b80610cd65750828015610cd657506000818152602081905260409020600301600090610ccb611fe7565b906101000a900460ff165b15610ce2576001820191505b600101610c60565b5092915050565b5a63996d79a5598160e01b8152602081600483336000905af158601d01573d60011458600c01573d6000803e3d621234565260ea61109c528051925060005b6040811015610d4757600082820152602001610d30565b5050506001600160a01b03165a610d5c611f22565b6001600160a01b031614610d7857600080610d75611f7c565b50505b6001600160a01b03811660009081526002602052819060409020600090610d9d611fe7565b906101000a900460ff1615610dba57600080610db7611f7c565b50505b816001600160a01b038116610dd757600080610dd4611f7c565b50505b600380610de2611fe7565b90506001016004610df1611fe7565b60328211158015610e025750818111155b8015610e0d57508015155b8015610e1857508115155b610e2a57600080610e27611f7c565b50505b6001600160a01b0385166000908152600260205260019060409020600181610e50611fe7565b8160ff02191690831515021790610e65612033565b5050506003859080600181610e78611fe7565b018082610e83612033565b5050600092835291600019830191506020902091929101600181610ea5611fe7565b816001600160a01b0302191690836001600160a01b0316021790610ec7612033565b50505050846001600160a01b031660008051602061226883398151915260405160405180910390a25050505050565b600080805b600380610f06611fe7565b9050811015610fbd576000848152600160205260409020600060038381610f2b611fe7565b8110610f3357fe5b90600052602060002001600090610f48611fe7565b906101000a90046001600160a01b03166001600160a01b03166001600160a01b03168152602001908152602001600020600090610f83611fe7565b906101000a900460ff1615610f99576001820191505b6004610fa3611fe7565b821415610fb557600192505050610fc0565b600101610efb565b50505b919050565b6000805b600380610fd4611fe7565b905081101561106f576000838152600160205260409020600060038381610ff9611fe7565b811061100157fe5b90600052602060002001600090611016611fe7565b906101000a90046001600160a01b03166001600160a01b03166001600160a01b03168152602001908152602001600020600090611051611fe7565b906101000a900460ff1615611067576001820191505b600101610fc9565b50919050565b60006020528060005260406000209050600081611090611fe7565b906101000a90046001600160a01b031690806001016110ad611fe7565b9080600201806110bb611fe7565b600181600116156101000203166002900480601f0160208091040260200160405190810160405281815291906020830182806110f5611fe7565b600181600116156101000203166002900480156111615780601f1061112f576101008083611121611fe7565b040283529160200191611161565b820191906000526020600020905b81611146611fe7565b8152906001019060200180831161113d57829003601f168201915b50505050509080600301600090611176611fe7565b906101000a900460ff16905084565b6060600380611192611fe7565b8060200260200160405190810160405281815291906020830182806111b5611fe7565b801561120257602002820191906000526020600020905b6000826111d7611fe7565b906101000a90046001600160a01b03166001600160a01b0316815260200190600101908083116111cc575b505050505090505b90565b606080600561121a611fe7565b604051908082528060200260200182016040528015611243578160200160208202803883390190505b5090506000805b6005611254611fe7565b8110156112ed5785801561128b5750600081815260208190526040902060030160009061127f611fe7565b906101000a900460ff16155b806112c057508480156112c0575060008181526020819052604090206003016000906112b5611fe7565b906101000a900460ff165b156112e557808383815181106112d257fe5b6020026020010181815250506001820191505b60010161124a565b878703604051908082528060200260200182016040528015611319578160200160208202803883390190505b5093508790505b8681101561135d5782818151811061133457fe5b6020026020010151848983038151811061134a57fe5b6020908102919091010152600101611320565b505050949350505050565b606080600380611376611fe7565b90506040519080825280602002602001820160405280156113a1578160200160208202803883390190505b5090506000805b6003806113b3611fe7565b90508110156114b35760008581526001602052604090206000600383816113d8611fe7565b81106113e057fe5b906000526020600020016000906113f5611fe7565b906101000a90046001600160a01b03166001600160a01b03166001600160a01b03168152602001908152602001600020600090611430611fe7565b906101000a900460ff16156114ab576003818161144b611fe7565b811061145357fe5b90600052602060002001600090611468611fe7565b906101000a90046001600160a01b031683838151811061148457fe5b60200260200101906001600160a01b031690816001600160a01b0316815250506001820191505b6001016113a8565b816040519080825280602002602001820160405280156114dd578160200160208202803883390190505b509350600090505b8181101561152d578281815181106114f957fe5b602002602001015184828151811061150d57fe5b6001600160a01b03909216602092830291909101909101526001016114e5565b505050919050565b600561153f611fe7565b81565b5a63996d79a5598160e01b8152602081600483336000905af158601d01573d60011458600c01573d6000803e3d621234565260ea61109c528051925060005b604081101561159857600082820152602001611581565b5050506001600160a01b03165a6115ad611f22565b6001600160a01b0316146115c9576000806115c6611f7c565b50505b6003806115d4611fe7565b905081603282111580156115e85750818111155b80156115f357508015155b80156115fe57508115155b6116105760008061160d611f7c565b50505b8280600461161c612033565b5050507fa3f1ee9126a074d9326c682f561767f710e927faa811f7a99829d49dc421797a8360405190815260200160405180910390a1505050565b5a611660611f22565b6001600160a01b0381166000908152600260205260409020600090611683611fe7565b906101000a900460ff1661169f5760008061169c611f7c565b50505b600082815260208190528290604081206000906116ba611fe7565b906101000a90046001600160a01b03166001600160a01b031614156116e7576000806116e4611f7c565b50505b825a6116f1611f22565b60008281526001602052604090206001600160a01b038216600090815260209190915260409020600090611723611fe7565b906101000a900460ff16156117405760008061173d611f7c565b50505b600085815260016020819052906040902060005a61175c611f22565b6001600160a01b03166001600160a01b03168152602001908152602001600020600181611787611fe7565b8160ff0219169083151502179061179c612033565b505050845a6117a9611f22565b6001600160a01b03167f4a504a94899432a9846e1aa406dceb1bcfd538bb839071d49d1e5e23f5be30ef60405160405180910390a36117e785611ae9565b5050505050565b6000611830858585858080601f0160208091040260200160405190810160405281815292919060208401838380828437600092019190915250611da992505050565b905061183b81611657565b949350505050565b603281565b600461153f611fe7565b5a63996d79a5598160e01b8152602081600483336000905af158601d01573d60011458600c01573d6000803e3d621234565260ea61109c528051925060005b60408110156118a857600082820152602001611891565b5050506001600160a01b03165a6118bd611f22565b6001600160a01b0316146118d9576000806118d6611f7c565b50505b6001600160a01b038216600090815260026020528290604090206000906118fe611fe7565b906101000a900460ff1661191a57600080611917611f7c565b50505b6001600160a01b0382166000908152600260205282906040902060009061193f611fe7565b906101000a900460ff161561195c57600080611959611f7c565b50505b60005b60038061196a611fe7565b9050811015611a2157846001600160a01b031660038281611989611fe7565b811061199157fe5b906000526020600020016000906119a6611fe7565b906101000a90046001600160a01b03166001600160a01b03161415611a195783600382816119d2611fe7565b81106119da57fe5b906000526020600020016001816119ef611fe7565b816001600160a01b0302191690836001600160a01b0316021790611a11612033565b505050611a21565b60010161195f565b506001600160a01b0384166000908152600260205260408120600181611a45611fe7565b8160ff02191690831515021790611a5a612033565b5050506001600160a01b0383166000908152600260205260019060409020600181611a83611fe7565b8160ff02191690831515021790611a98612033565b505050836001600160a01b031660008051602061228883398151915260405160405180910390a2826001600160a01b031660008051602061226883398151915260405160405180910390a250505050565b5a611af2611f22565b6001600160a01b0381166000908152600260205260409020600090611b15611fe7565b906101000a900460ff16611b3157600080611b2e611f7c565b50505b815a611b3b611f22565b60008281526001602052604090206001600160a01b038216600090815260209190915260409020600090611b6d611fe7565b906101000a900460ff16611b8957600080611b86611f7c565b50505b60008481526020819052849060409020600301600090611ba7611fe7565b906101000a900460ff1615611bc457600080611bc1611f7c565b50505b611bcd85610ef6565b156117e757600085815260208190526040812090506001600382018181611bf2611fe7565b8160ff02191690831515021790611c07612033565b50611d1391506000905082611c1a611fe7565b906101000a90046001600160a01b031682600101611c36611fe7565b8360020180611c43611fe7565b600181600116156101000203166002900490508460020180611c63611fe7565b600181600116156101000203166002900480601f016020809104026020016040519081016040528181529190602083018280611c9d611fe7565b60018160011615610100020316600290048015611d095780601f10611cd7576101008083611cc9611fe7565b040283529160200191611d09565b820191906000526020600020905b81611cee611fe7565b81529060010190602001808311611ce557829003601f168201915b5050505050611ef1565b15611d4a57857f33e13ecb54c3076d8e8bb8c2881800a4d972b792045ffae98fdf46df365fed7560405160405180910390a2611da1565b857f526441bb6c1aba3c9a4a6ca1d6545da9c2333c8c48343ef398eb858d72b7923660405160405180910390a2600060038201600181611d88611fe7565b8160ff02191690831515021790611d9d612033565b5050505b505050505050565b6000836001600160a01b038116611dc857600080611dc5611f7c565b50505b6005611dd2611fe7565b91506040516080810160409081526001600160a01b038716825260208083018790528183018690526000606084018190528581529081905220815181600181611e19611fe7565b816001600160a01b0302191690836001600160a01b0316021790611e3b612033565b505050602082015181600101611e4f612033565b5050604082015181600201908051611e6b9291602001906120b5565b50606082015160038201600181611e80611fe7565b8160ff02191690831515021790611e95612033565b5050509050506001600560008282611eab611fe7565b019250508190611eb9612033565b505050817fc0ba8fe4b176c1714197d43b9cc6bcf797a4a7461c5fe8d0ef6e184ae7601e5160405160405180910390a2509392505050565b6000806040516020840160008287838a8c6187965a03611f0f612155565b50949d9c50505050505050505050505050565b6373509064598160e01b8152602081600483336000905af158601d01573d60011458600c01573d6000803e3d621234565260ea61109c528051935060005b6040811015611f7757600082820152602001611f60565b505050565b632a2a7adb598160e01b8152600481016020815285602082015260005b86811015611fb4578086015182820160400152602001611f99565b506020828760640184336000905af158601d01573d60011458600c01573d6000803e3d621234565260ea61109c52505050565b6303daa959598160e01b8152836004820152602081602483336000905af158601d01573d60011458600c01573d6000803e3d621234565260ea61109c5280516000825293506020611f60565b6322bd64c0598160e01b8152836004820152846024820152600081604483336000905af158601d01573d60011458600c01573d6000803e3d621234565260ea61109c52600081526020611f60565b8161208a611fe7565b8183612094612033565b505081811115611f775781836000526020600020611f779281019101612242565b82806120bf611fe7565b600181600116156101000203166002900490600052602060002090601f016020900481019282601f1061210657805160ff191683800117856120ff612033565b5050612145565b82800160010185612115612033565b50508215612145579182015b8281111561214557825182612134612033565b505091602001919060010190612121565b50612151929150612242565b5090565b6385979f76598160e01b8152612188565b80808311156121725750815b92915050565b8080831015612172575090919050565b836004820152846024820152606060448201528760648201526084810160005b898110156121c05780890151828201526020016121a8565b506060828a60a40184336000905af158601d01573d60011458600c01573d6000803e3d621234565260ea61109c52815160408301513d6000853e8c8c82606087013350600060045af150596122158e3d612178565b8d016122218187612166565b5b828110156122365760008152602001612222565b50929d50505050505050565b61120a91905b80821115612151576000808261225c612033565b50505060010161224856fef39e6e1eb0edcf53c221607b54b00cd28f3196fed0a24994dc308b8f611b682d8001553a916ef2f495d26a907cc54d96ed840d7bda71e73194bf5a9df7a76b90",
  "source": "pragma solidity ^0.5.16;\n\n\n/// @title Multisignature wallet - Allows multiple parties to agree on transactions before execution.\n/// @author Stefan George - <stefan.george@consensys.net>\ncontract MultiSigWallet {\n\n    /*\n     *  Events\n     */\n    event Confirmation(address indexed sender, uint indexed transactionId);\n    event Revocation(address indexed sender, uint indexed transactionId);\n    event Submission(uint indexed transactionId);\n    event Execution(uint indexed transactionId);\n    event ExecutionFailure(uint indexed transactionId);\n    event Deposit(address indexed sender, uint value);\n    event OwnerAddition(address indexed owner);\n    event OwnerRemoval(address indexed owner);\n    event RequirementChange(uint required);\n\n    /*\n     *  Constants\n     */\n    uint constant public MAX_OWNER_COUNT = 50;\n\n    /*\n     *  Storage\n     */\n    mapping (uint => Transaction) public transactions;\n    mapping (uint => mapping (address => bool)) public confirmations;\n    mapping (address => bool) public isOwner;\n    address[] public owners;\n    uint public required;\n    uint public transactionCount;\n\n    struct Transaction {\n        address destination;\n        uint value;\n        bytes data;\n        bool executed;\n    }\n\n    /*\n     *  Modifiers\n     */\n    modifier onlyWallet() {\n        require(msg.sender == address(this));\n        _;\n    }\n\n    modifier ownerDoesNotExist(address owner) {\n        require(!isOwner[owner]);\n        _;\n    }\n\n    modifier ownerExists(address owner) {\n        require(isOwner[owner]);\n        _;\n    }\n\n    modifier transactionExists(uint transactionId) {\n        require(transactions[transactionId].destination != address(0));\n        _;\n    }\n\n    modifier confirmed(uint transactionId, address owner) {\n        require(confirmations[transactionId][owner]);\n        _;\n    }\n\n    modifier notConfirmed(uint transactionId, address owner) {\n        require(!confirmations[transactionId][owner]);\n        _;\n    }\n\n    modifier notExecuted(uint transactionId) {\n        require(!transactions[transactionId].executed);\n        _;\n    }\n\n    modifier notNull(address _address) {\n        require(_address != address(0));\n        _;\n    }\n\n    modifier validRequirement(uint ownerCount, uint _required) {\n        require(ownerCount <= MAX_OWNER_COUNT\n            && _required <= ownerCount\n            && _required != 0\n            && ownerCount != 0);\n        _;\n    }\n\n    /// @dev Fallback function allows to deposit ether.\n    function()\n        external\n        payable\n    {\n        if (msg.value > 0)\n            emit Deposit(msg.sender, msg.value);\n    }\n\n    /*\n     * Public functions\n     */\n    /// @dev Contract constructor sets initial owners and required number of confirmations.\n    /// @param _owners List of initial owners.\n    /// @param _required Number of required confirmations.\n    constructor(address[] memory _owners, uint _required)\n        public\n        validRequirement(_owners.length, _required)\n    {\n        for (uint i=0; i<_owners.length; i++) {\n            require(!isOwner[_owners[i]] && _owners[i] != address(0));\n            isOwner[_owners[i]] = true;\n        }\n        owners = _owners;\n        required = _required;\n    }\n\n    /// @dev Allows to add a new owner. Transaction has to be sent by wallet.\n    /// @param owner Address of new owner.\n    function addOwner(address owner)\n        external\n        onlyWallet\n        ownerDoesNotExist(owner)\n        notNull(owner)\n        validRequirement(owners.length + 1, required)\n    {\n        isOwner[owner] = true;\n        owners.push(owner);\n        emit OwnerAddition(owner);\n    }\n\n    /// @dev Allows to remove an owner. Transaction has to be sent by wallet.\n    /// @param owner Address of owner.\n    function removeOwner(address owner)\n        external\n        onlyWallet\n        ownerExists(owner)\n    {\n        isOwner[owner] = false;\n        for (uint i=0; i<owners.length - 1; i++)\n            if (owners[i] == owner) {\n                owners[i] = owners[owners.length - 1];\n                break;\n            }\n        owners.length -= 1;\n        if (required > owners.length)\n            changeRequirement(owners.length);\n        emit OwnerRemoval(owner);\n    }\n\n    /// @dev Allows to replace an owner with a new owner. Transaction has to be sent by wallet.\n    /// @param owner Address of owner to be replaced.\n    /// @param newOwner Address of new owner.\n    function replaceOwner(address owner, address newOwner)\n        external\n        onlyWallet\n        ownerExists(owner)\n        ownerDoesNotExist(newOwner)\n    {\n        for (uint i=0; i<owners.length; i++)\n            if (owners[i] == owner) {\n                owners[i] = newOwner;\n                break;\n            }\n        isOwner[owner] = false;\n        isOwner[newOwner] = true;\n        emit OwnerRemoval(owner);\n        emit OwnerAddition(newOwner);\n    }\n\n    /// @dev Allows to change the number of required confirmations. Transaction has to be sent by wallet.\n    /// @param _required Number of required confirmations.\n    function changeRequirement(uint _required)\n        public\n        onlyWallet\n        validRequirement(owners.length, _required)\n    {\n        required = _required;\n        emit RequirementChange(_required);\n    }\n\n    /// @dev Allows an owner to submit and confirm a transaction.\n    /// @param destination Transaction target address.\n    /// @param value Transaction ether value.\n    /// @param data Transaction data payload.\n    /// @return Returns transaction ID.\n    function submitTransaction(address destination, uint value, bytes calldata data)\n        external\n        returns (uint transactionId)\n    {\n        transactionId = addTransaction(destination, value, data);\n        confirmTransaction(transactionId);\n    }\n\n    /// @dev Allows an owner to confirm a transaction.\n    /// @param transactionId Transaction ID.\n    function confirmTransaction(uint transactionId)\n        public\n        ownerExists(msg.sender)\n        transactionExists(transactionId)\n        notConfirmed(transactionId, msg.sender)\n    {\n        confirmations[transactionId][msg.sender] = true;\n        emit Confirmation(msg.sender, transactionId);\n        executeTransaction(transactionId);\n    }\n\n    /// @dev Allows an owner to revoke a confirmation for a transaction.\n    /// @param transactionId Transaction ID.\n    function revokeConfirmation(uint transactionId)\n        external\n        ownerExists(msg.sender)\n        confirmed(transactionId, msg.sender)\n        notExecuted(transactionId)\n    {\n        confirmations[transactionId][msg.sender] = false;\n        emit Revocation(msg.sender, transactionId);\n    }\n\n    /// @dev Allows anyone to execute a confirmed transaction.\n    /// @param transactionId Transaction ID.\n    function executeTransaction(uint transactionId)\n        public\n        ownerExists(msg.sender)\n        confirmed(transactionId, msg.sender)\n        notExecuted(transactionId)\n    {\n        if (isConfirmed(transactionId)) {\n            Transaction storage txn = transactions[transactionId];\n            txn.executed = true;\n            if (external_call(txn.destination, txn.value, txn.data.length, txn.data))\n                emit Execution(transactionId);\n            else {\n                emit ExecutionFailure(transactionId);\n                txn.executed = false;\n            }\n        }\n    }\n\n    // call has been separated into its own function in order to take advantage\n    // of the Solidity's code generator to produce a loop that copies tx.data into memory.\n    function external_call(address destination, uint value, uint dataLength, bytes memory data) internal returns (bool) {\n        bool result;\n\n        assembly {\n            let x := mload(0x40)   // \"Allocate\" memory for output (0x40 is where \"free memory\" pointer is stored by convention)\n            let d := add(data, 32) // First 32 bytes are the padded length of data, so exclude that\n            result := call(\n                sub(gas, 34710),   // 34710 is the value that solidity is currently emitting\n                                   // It includes callGas (700) + callVeryLow (3, to pay for SUB) + callValueTransferGas (9000) +\n                                   // callNewAccountGas (25000, in case the destination address does not exist and needs creating)\n                destination,\n                value,\n                d,\n                dataLength,        // Size of the input (in bytes) - this is what fixes the padding problem\n                x,\n                0                  // Output is ignored, therefore the output size is zero\n            )\n        }\n        return result;\n    }\n\n    /// @dev Returns the confirmation status of a transaction.\n    /// @param transactionId Transaction ID.\n    /// @return Confirmation status.\n    function isConfirmed(uint transactionId)\n        public\n        view\n        returns (bool)\n    {\n        uint count = 0;\n        for (uint i=0; i<owners.length; i++) {\n            if (confirmations[transactionId][owners[i]])\n                count += 1;\n            if (count == required)\n                return true;\n        }\n    }\n\n    /*\n     * Internal functions\n     */\n    /// @dev Adds a new transaction to the transaction mapping, if transaction does not exist yet.\n    /// @param destination Transaction target address.\n    /// @param value Transaction ether value.\n    /// @param data Transaction data payload.\n    /// @return Returns transaction ID.\n    function addTransaction(address destination, uint value, bytes memory data)\n        internal\n        notNull(destination)\n        returns (uint transactionId)\n    {\n        transactionId = transactionCount;\n        transactions[transactionId] = Transaction({\n            destination: destination,\n            value: value,\n            data: data,\n            executed: false\n        });\n        transactionCount += 1;\n        emit Submission(transactionId);\n    }\n\n    /*\n     * Web3 call functions\n     */\n    /// @dev Returns number of confirmations of a transaction.\n    /// @param transactionId Transaction ID.\n    /// @return Number of confirmations.\n    function getConfirmationCount(uint transactionId)\n        public\n        view\n        returns (uint count)\n    {\n        for (uint i=0; i<owners.length; i++)\n            if (confirmations[transactionId][owners[i]])\n                count += 1;\n    }\n\n    /// @dev Returns total number of transactions after filers are applied.\n    /// @param pending Include pending transactions.\n    /// @param executed Include executed transactions.\n    /// @return Total number of transactions after filters are applied.\n    function getTransactionCount(bool pending, bool executed)\n        public\n        view\n        returns (uint count)\n    {\n        for (uint i=0; i<transactionCount; i++)\n            if (   pending && !transactions[i].executed\n                || executed && transactions[i].executed)\n                count += 1;\n    }\n\n    /// @dev Returns list of owners.\n    /// @return List of owner addresses.\n    function getOwners()\n        public\n        view\n        returns (address[] memory)\n    {\n        return owners;\n    }\n\n    /// @dev Returns array with owner addresses, which confirmed transaction.\n    /// @param transactionId Transaction ID.\n    /// @return Returns array of owner addresses.\n    function getConfirmations(uint transactionId)\n        public\n        view\n        returns (address[] memory _confirmations)\n    {\n        address[] memory confirmationsTemp = new address[](owners.length);\n        uint count = 0;\n        uint i;\n        for (i=0; i<owners.length; i++)\n            if (confirmations[transactionId][owners[i]]) {\n                confirmationsTemp[count] = owners[i];\n                count += 1;\n            }\n        _confirmations = new address[](count);\n        for (i=0; i<count; i++)\n            _confirmations[i] = confirmationsTemp[i];\n    }\n\n    /// @dev Returns list of transaction IDs in defined range.\n    /// @param from Index start position of transaction array.\n    /// @param to Index end position of transaction array.\n    /// @param pending Include pending transactions.\n    /// @param executed Include executed transactions.\n    /// @return Returns array of transaction IDs.\n    function getTransactionIds(uint from, uint to, bool pending, bool executed)\n        public\n        view\n        returns (uint[] memory _transactionIds)\n    {\n        uint[] memory transactionIdsTemp = new uint[](transactionCount);\n        uint count = 0;\n        uint i;\n        for (i=0; i<transactionCount; i++)\n            if (   pending && !transactions[i].executed\n                || executed && transactions[i].executed)\n            {\n                transactionIdsTemp[count] = i;\n                count += 1;\n            }\n        _transactionIds = new uint[](to - from);\n        for (i=from; i<to; i++)\n            _transactionIds[i - from] = transactionIdsTemp[i];\n    }\n}\n",
  "sourcePath": "/Users/ed/Development/ovm-og-multisigwallet/contracts/MultiSigWallet.sol",
  "compiler": {
    "name": "solc",
    "version": "0.5.16"
  },
  "schemaVersion": "3.3.4",
  "updatedAt": "2021-03-10T16:38:00.189Z",
  "devdoc": {
    "author": "Stefan George - <stefan.george@consensys.net>",
    "methods": {
      "addOwner(address)": {
        "details": "Allows to add a new owner. Transaction has to be sent by wallet.",
        "params": {
          "owner": "Address of new owner."
        }
      },
      "changeRequirement(uint256)": {
        "details": "Allows to change the number of required confirmations. Transaction has to be sent by wallet.",
        "params": {
          "_required": "Number of required confirmations."
        }
      },
      "confirmTransaction(uint256)": {
        "details": "Allows an owner to confirm a transaction.",
        "params": {
          "transactionId": "Transaction ID."
        }
      },
      "constructor": {
        "details": "Contract constructor sets initial owners and required number of confirmations.",
        "params": {
          "_owners": "List of initial owners.",
          "_required": "Number of required confirmations."
        }
      },
      "executeTransaction(uint256)": {
        "details": "Allows anyone to execute a confirmed transaction.",
        "params": {
          "transactionId": "Transaction ID."
        }
      },
      "getConfirmationCount(uint256)": {
        "details": "Returns number of confirmations of a transaction.",
        "params": {
          "transactionId": "Transaction ID."
        },
        "return": "Number of confirmations."
      },
      "getConfirmations(uint256)": {
        "details": "Returns array with owner addresses, which confirmed transaction.",
        "params": {
          "transactionId": "Transaction ID."
        },
        "return": "Returns array of owner addresses."
      },
      "getOwners()": {
        "details": "Returns list of owners.",
        "return": "List of owner addresses."
      },
      "getTransactionCount(bool,bool)": {
        "details": "Returns total number of transactions after filers are applied.",
        "params": {
          "executed": "Include executed transactions.",
          "pending": "Include pending transactions."
        },
        "return": "Total number of transactions after filters are applied."
      },
      "getTransactionIds(uint256,uint256,bool,bool)": {
        "details": "Returns list of transaction IDs in defined range.",
        "params": {
          "executed": "Include executed transactions.",
          "from": "Index start position of transaction array.",
          "pending": "Include pending transactions.",
          "to": "Index end position of transaction array."
        },
        "return": "Returns array of transaction IDs."
      },
      "isConfirmed(uint256)": {
        "details": "Returns the confirmation status of a transaction.",
        "params": {
          "transactionId": "Transaction ID."
        },
        "return": "Confirmation status."
      },
      "removeOwner(address)": {
        "details": "Allows to remove an owner. Transaction has to be sent by wallet.",
        "params": {
          "owner": "Address of owner."
        }
      },
      "replaceOwner(address,address)": {
        "details": "Allows to replace an owner with a new owner. Transaction has to be sent by wallet.",
        "params": {
          "newOwner": "Address of new owner.",
          "owner": "Address of owner to be replaced."
        }
      },
      "revokeConfirmation(uint256)": {
        "details": "Allows an owner to revoke a confirmation for a transaction.",
        "params": {
          "transactionId": "Transaction ID."
        }
      },
      "submitTransaction(address,uint256,bytes)": {
        "details": "Allows an owner to submit and confirm a transaction.",
        "params": {
          "data": "Transaction data payload.",
          "destination": "Transaction target address.",
          "value": "Transaction ether value."
        },
        "return": "Returns transaction ID."
      }
    },
    "title": "Multisignature wallet - Allows multiple parties to agree on transactions before execution."
  },
  "userdoc": {
    "methods": {}
  }
}